:020000040800F2
:10000000C80C002001010008BD150008C90E000839
:10001000B9150008090E0008791900080000000051
:100020000000000000000000000000004917000868
:100030000D0E000800000000C11500084D17000853
:100040001B0100081B0100081B0100081B01000820
:100050001B0100081B0100081B010008850E000899
:100060001B0100081B010008990E00081B01000875
:100070001B0100081B0100081B0100081B010008F0
:100080001B0100081B0100081B0100081B010008E0
:100090001B0100081B0100081B0100081B010008D0
:1000A0001B010008891800081B0100081B0100083B
:1000B0001B0100081B0100081B0100081B010008B0
:1000C0001B0100081B0100081B0100081B010008A0
:1000D0001B0100081B0100081B010008391900085A
:1000E0006D0E00081B0100081B010008DFF80CD092
:1000F00000F004FB00480047093A0008C80C002043
:100100000648804706480047FEE7FEE7FEE7FEE7B1
:10011000FEE7FEE7FEE7FEE7FEE7FEE775170008ED
:10012000ED0000082DE9F05F0546002092469B4651
:1001300088460646814640241BE0284641464746FD
:10014000224600F037FA53465A46C01A914110D35E
:1001500011461846224600F01EFA2D1A67EB0108D8
:100160004F4622460120002100F015FA17EB000946
:100170004E41201EA4F10104DFDC484631462A46E8
:100180004346BDE8F09FF0B480EA0102D40F42007C
:10019000B2EB410F02D20246084611464A0042D055
:1001A000C30DDDB2C1F3C752AD1A202D35DAC1F34C
:1001B000160141F4000204B15242C5F1200602FAD0
:1001C00006F12A411044B3EBD05F23D0C4B1012D16
:1001D000A0EBC35009DCF0BC4FF0004202EAC3526E
:1001E000DBB200F5000000F0FEB9400000F18070C5
:1001F00000EBC350A0F1807040EAD170490009E0E3
:10020000490841EAC071A0EBC35000F50000400866
:1002100000EBC350F0BC00F0DDB96142012202EBFB
:100220004101001BF6E7F0BC704781F00041AAE7EE
:1002300080F00040A7E780EA010210B502F0004319
:10024000400022D04A001FD0010E01EB1261C0F322
:100250005600C2F3560240F4000042F40002A0FB34
:10026000022000047F39140400D0401C50EA1240E0
:1002700001D44000491EC2B20C0604EBD010401C51
:100280004008802A02D003E0002010BD20F00100C9
:10029000002900DA0020184310BD30B480EA0102C2
:1002A00002F0004530F0004221F0004013D090B140
:1002B000C30DD40DC2F31601C0F31600E41A41F4C5
:1002C000000140F400027D34914201D3641C00E03F
:1002D0004900002C02DA30BC002070474FF40000C7
:1002E0000023914201D3891A034340084FEA410198
:1002F000F7D151B1914202D14FF0004105E002D255
:100300004FF0010101E06FF0010103EBC4502844FC
:1003100030BC00F05FB92DE9FE4F81EA030404F020
:10032000004421F0004100944FF0000B23F0004303
:1003300050EA01045ED052EA03045BD0C3F30A54CE
:10034000C1F30A552C44A4F2F3340194A0FB0254E7
:10035000C1F3130141F48011C3F3130343F4801379
:1003600001FB024400FB034E840A970A44EA8154CD
:1003700047EA8357A4FB076802958D0A05FB0785AA
:100380004FEA932C04FB0C542705029D4FEA0658B4
:1003900047EA1637B5EB08056EEB070C870E920E91
:1003A00047EA811742EA8312A7FB0201B6EB0B0171
:1003B00064EB00042B0D43EA0C335E1844EB1C5035
:1003C000DA465146E7FB0201C5F313044FEA0B334B
:1003D00043EA14534FEA0432019C43EA0603A4F1B2
:1003E0000C040294009CCDE900B400F039F903B08C
:1003F000BDE8F08F00200146F9E72DE9F04D81EAD4
:10040000030404F0004B21F0004514464FF0000AAD
:1004100023F0004150EA050220D054EA01021DD029
:10042000C5F30A570246C5F31303C1F31300C1F322
:100430000A5640F4801543F48013A7EB0608101BFE
:10044000D64608F2FD3873EB050002D308F1010827
:1004500001E092185B41B8F1000F03DA0020014679
:10046000BDE8F08D00204FF48011064684460EE072
:10047000171B73EB050705D3121B63EB050306433C
:100480004CEA010C49084FEA300092185B4150EAEF
:100490000107EDD152EA030012D082EA040083EA98
:1004A0000501084305D0101BAB4106D201220023F1
:1004B00006E000224FF0004302E06FF0010253100B
:1004C0001AEB06004CEB085110EB0A0041EB0B0154
:1004D000BDE8F04D00F0B5B8C10F80EAE070084407
:1004E000CA079623002100F07EB80EB5C10F80EA3E
:1004F000E0700844CA07002140F233438DE80E0043
:100500000A460B4600F0ACF803B000BD0EB540F251
:10051000334102910021CDE900110A460B4600F05B
:100520009FF803B000BD00F0004220F00040C10D74
:10053000C0F3160040F400007F2901DA0020704764
:10054000962903DCC1F19601C84001E09639884044
:10055000002AF4D04042704770B5C1F30A5201F04E
:1005600000450024C1F3130140F2FF3341F4801130
:100570009A4201DA002070BD40F233439A42A2F25F
:10058000334203DC524200F015F800E090402C4367
:10059000F1D0404270BD202A04DB203A00FA02F17B
:1005A000002070479140C2F1200320FA03F3194361
:1005B00090407047202A04DB203A21FA02F0002103
:1005C000704721FA02F3D040C2F120029140084363
:1005D000194670470029A8BF7047401C490008BF52
:1005E00020F00100704710B4B0FA80FC00FA0CF063
:1005F00050EA010404BF10BC704749B1CCF120049B
:1006000021FA04F411FA0CF118BF01212143084327
:10061000A3EB0C01CB1D4FEA00614FEA102042BF53
:10062000002010BC704700EBC35010440029A4BF49
:1006300010BC7047401C490008BF20F0010010BCEE
:10064000704710B5141E73F1000408DA401C41F124
:10065000000192185B411A4301D120F0010010BD46
:100660002DE9F04D92469B4611B1B1FA81F202E0BC
:10067000B0FA80F220329046FFF78DFF04460F4615
:1006800040EA0A0041EA0B0153465A46084313D098
:10069000114653EA010019D0C8F140025046FFF755
:1006A00089FF05460E46504659464246FFF773FFFE
:1006B000084305D0012004E020463946BDE8F08D0E
:1006C0000020054346EAE0762C4337430A98630549
:1006D000E40AA0EB08000022FD0A44EA47540A306D
:1006E00002D500200146E9E7010510196941DDE95D
:1006F000084500196941BDE8F04DA2E71CB509485D
:100700000090094801900546009C06E0E06840F032
:10071000010394E8070098471034AC42F6D3FFF782
:10072000E9FC0000685400088854000870B58C1873
:1007300010F8015B15F0070301D110F8013B2A11F5
:1007400006D110F8012B03E010F8016B01F8016BE2
:100750005B1EF9D12B0705D40023521E0DD401F8DE
:10076000013BFAE710F8013BCB1A921C03E013F8A7
:10077000015B01F8015B521EF9D5A142D8D30020DC
:1007800070BD000070B582B004F014F9002843D0A9
:1007900040F28824C2F2000494F83E0000073BD4E3
:1007A00040F28C060025C2F2000600BF7219705B91
:1007B0005188127900F06CFA0635B5F5D57FF5D180
:1007C0009620ADF8040001A93E20022200F090FE20
:1007D00094F83E0040F28800C2F20000016849F23D
:1007E000A810042200F054FA40F28400C2F2000083
:1007F000016849F2AC10042200F04AFA9220ADF8E8
:1008000006000DF106013E20022200F071FE94F870
:100810003E00012002B070BD002002B070BD00009B
:1008200040F61400C4F201004FF40041016070472B
:1008300010B582B040F2EC34C2F2000464202146CC
:10084000022200F089FC4FF4FA7001900198411ED9
:1008500000280191FAD1208802B010BD10B582B0F5
:1008600040F2EC34C2F2000462202146022200F081
:1008700073FC4FF4FA7001900198411E0028019119
:10088000FAD1208802B010BD2DE9F04182B040F2CB
:10089000EC3440F2683714250026C2F200044FF40D
:1008A000FA78C2F2000700BFE8B22146022200F047
:1008B00053FCCDF8048000BF0198411E002801912F
:1008C000FAD12088023527F816000136102EEBD118
:1008D00040F2EC34C2F2000434202146022200F03F
:1008E0003BFC4FF4FA7001900198411E00280191E1
:1008F000FAD1208840F2F031C2F20001088040F2C3
:100900008821C2F20001488436202146022200F0EC
:1009100023FC4FF4FA7001900198411E00280191C8
:10092000FAD1208840F29231C2F2000108803820CA
:100930002146022200F010FC4FF4FA70019000BF33
:100940000198411E00280191FAD1208840F28A3195
:10095000C2F20001088002B0BDE8F08110B582B09B
:1009600040F2EC34C2F200043A202146022200F0A8
:10097000F3FB4FF4FA7001900198411E0028019199
:10098000FAD1B4F9000002B010BD000010B582B079
:1009900040F2EC34C2F200047F202146022200F033
:1009A000DBFB4FF4FA7001900198411E0028019181
:1009B000FAD1207840F28931C2F2000140F2883247
:1009C0000870C0F38001C2F20002117040F266327A
:1009D00000F00101C2F20002117040F28F32C0F348
:1009E0004001C2F20002117040F29031C0F3C00029
:1009F000C2F20001087002B010BD000010B582B054
:100A000040F2EC34C2F200040B202146022200F036
:100A1000A3FB4FF4FA7001900198411E0028019148
:100A2000FAD1207840F2B841C2F20001087002B059
:100A300010BD000010B582B040F2EC34C2F20004E8
:100A40000D202146022200F087FB4FF4FA7001903E
:100A50000198411E00280191FAD1207840F2B94155
:100A6000C2F20001087002B010BD000010B582B0E3
:100A700040F2EC34C2F200040F202146022200F0C2
:100A80006BFB4FF4FA7001900198411E0028019110
:100A9000FAD1207840F2BA41C2F20001087002B0E7
:100AA00010BD000010B582B040F2EC34C2F2000478
:100AB00003202146022200F04FFB4FF4FA70019010
:100AC0000198411E00280191FAD140F2EA30C2F2A9
:100AD0000000008808B102B010BD207840F2BB4190
:100AE000C2F2000140F2F2320870C0F38001C2F29B
:100AF0000002117040F28E32C0F3C001C2F2000257
:100B0000117040F2EE32C109C2F20002117040F2DF
:100B10008D32C0F34011C2F20002117040F28C31EC
:100B2000C0F30010C2F20001087002B010BD000056
:100B300010B582B040F2EC34C2F200040520214628
:100B4000022200F009FB4FF4FA7001900198411E57
:100B500000280191FAD140F2EA30C2F20000008888
:100B600008B102B010BD207840F2BC41C2F20001D1
:100B7000087002B010BD000010B582B040F2EC3435
:100B8000C2F2000407202146022200F0E5FA4FF4E9
:100B9000FA7001900198411E00280191FAD140F2AB
:100BA000EA30C2F20000008808B102B010BD20781F
:100BB00040F2BD41C2F20001087040F2BB41C2F2F6
:100BC000000140F2BC420978C2F2000212780844E7
:100BD0001044012840F2C9304FF00001C2F2000079
:100BE00088BF0121017002B010BD000010B582B0B5
:100BF00040F2EC34C2F200042146022200F0ACFACA
:100C00004FF4FA70019000BF0198411E0028019135
:100C1000FAD1208802B010BD10B582B040F2EC3499
:100C2000C2F200042146022200F096FA4FF4FA7054
:100C3000019000BF0198411E00280191FAD120883F
:100C400002B010BD40F2F431C2F2000114200622BD
:100C500000F082BA40F2F430C2F20000811D1C2084
:100C6000022200F079BA000040F2F430C2F2000033
:100C700000F108012020022200F06EBA40F2F430A8
:100C8000C2F2000000F10A012420022200F064BA3E
:100C900010B584B0002301938DF80400000A042AE3
:100CA000ADF80A30ADF808308DF805008DF8061063
:100CB0006ED0022A36D0012A40F0A38001AC3E203B
:100CC0002146032200F014FC40F2B640C2F20000BC
:100CD0000088002840F095804FF4FA70039000BF20
:100CE0000398411E00280391FAD1611E00200322BF
:100CF00011F8013F013A1844FAD1C0438DF80A00B7
:100D000005208DF80B000DF10A016020022200F091
:100D1000EFFB4FF4FA7003900398411E00280391F3
:100D2000FAD16EE0080A01AC8DF807003E2021469A
:100D3000042200F0DDFB40F2B640C2F20000008861
:100D400000285ED14FF4FA70039000BF0398411E53
:100D500000280391FAD1611E0020042211F8013FFE
:100D6000013A1844FAD1C0438DF80A0006208DF8E4
:100D70000B000DF10A016020022200F0B9FB4FF4D4
:100D8000FA7003900398411E00280391FAD138E0CD
:100D9000080A8DF80700080C8DF80800080E01AC51
:100DA0008DF809003E202146062200F0A1FB40F20A
:100DB000B640C2F20000008818BB4FF4FA700390EE
:100DC0000398411E00280391FAD1611E00200622DB
:100DD00011F8013F013A1844FAD1C0438DF80A00D6
:100DE00008208DF80B000DF10A016020022200F0AE
:100DF0007FFB4FF4FA7003900398411E0028039183
:100E0000FAD104B010BD0000FEE7000070470000FA
:100E100080B584B00023ADF806308DF80610090ABD
:100E2000012A8DF8071011D0EAB940F2EC31C2F274
:100E30000001022200F090F94FF4FA70029000BF16
:100E40000298411E00280291FAD10CE00DF1060132
:100E5000022200F04DFB4FF4FA7003900398411EFC
:100E600000280391FAD104B080BD000040F2144084
:100E7000C4F201000168090544BF4FF4006101603C
:100E80007047000040F21440C4F201000168890775
:100E900044BF02210160704740F21440C4F20100D7
:100EA0000168C90658BF70471021016040F28820D0
:100EB000C2F2000090F82C108A075CBF41F00201DA
:100EC00080F82C1070470000FEE700002DE9F04F7D
:100ED00083B040F61047CDE900238A46C4F20107EB
:100EE0008021402239603A606422ADF80A2000BFB8
:100EF000BDF80A305E1EADF80A600BB100BFF7E71F
:100F00007960ADF80A2000BFBDF80A104A1EADF89E
:100F10000A2009B100BFF7E7402564267D60ADF8DF
:100F20000A6000BFBDF80A104A1EADF80A2009B1D8
:100F300000BFF7E74400E0B200F08AF900F0F0F9F2
:100F4000504600F085F900F0EBF9802038603D60F4
:100F5000ADF80A60BDF80A104A1EADF80A2009B1C2
:100F600000BFF7E778606420ADF80A00BDF80A100A
:100F70004A1EADF80A2009B100BFF7E740217960A9
:100F8000ADF80A00BDF80A00411EADF80A1008B11C
:100F900000BFF7E744F00100C0B200F059F900F0DB
:100FA000BFF9019840F2882B0028C2F2000B00F034
:100FB000958001984FF0000AA0F1010E8022402692
:100FC00047F230554FF0640C06E000BF01980AF17B
:100FD000010A824500F0828000214FF000080023C2
:100FE0003A6007E0C0F3C01040EA4303072901F16B
:100FF000010137D242463E6057F8080C9046400641
:1010000090B203D4A84208F10102F5D3A84205D357
:101010009BF83E0040F008008BF83E003E60ADF8C3
:101020000AC000BFBDF80A00421EADF80A2008B190
:1010300000BFF7E757F8080C7E60ADF80AC0BDF8AE
:101040000A20A2F10109002AADF80A90CAD000BF17
:1010500000BFBDF80A20541E002AADF80A40F7D19F
:10106000C0E700BF0098D6454FF0800200F80A3074
:101070000CDD7A603E60ADF80AC000BFBDF80A0022
:10108000411EADF80A1068B100BFF7E73A603E6054
:10109000ADF80AC0BDF80A00411EADF80A1078B1DB
:1010A00000BFF7E77E60ADF80AC000BFBDF80A00D8
:1010B000411E0028ADF80A103FF488AF00BFF5E7E5
:1010C0007E60ADF80AC000BFBDF80A00411E0028CE
:1010D000ADF80A103FF47AAF00BFF5E74021802059
:1010E000796078606420ADF80A0000BFBDF80A009E
:1010F000421EADF80A2008B100BFF7E7002247F210
:101100003050396057F8081C4906114603D4814213
:1011100001F10102F6D347F23050814208D39BF827
:101120003E0040F008008BF83E0003B0BDE8F08FB1
:10113000402038606420ADF80A0000BFBDF80A0006
:10114000411EADF80A1008B100BFF7E780203860F3
:1011500003B0BDE8F08F00002DE9F04F81B00446E8
:1011600040F2EA30C2F200004FF0000840F2CA3903
:101170000646A0F800805000C2F2000993468A4655
:10118000C3B2082021464A46FFF7A0FE102099F876
:1011900000C08DF8000011206946042207238DF855
:1011A00001408DF802008DF803C000BF087880254B
:1011B0004FFA88F44FEA4807002C48BF83EA4807F3
:1011C0000542B84618BF88F007086D08F0D1013A0B
:1011D000100601F10101E9D199F801005FFA88F1E7
:1011E0008142B64604D0BEF800000130AEF80000DF
:1011F000BBF1020F8AF800C024D30120072102E0CE
:10120000013058451ED019F8102009EB40030AF8A8
:1012100000205B788027002466B26500002E48BF5E
:1012200081EA4405174218BF85F007057F082C4660
:10123000F2D1EAB29342E3D0BEF800200132AEF818
:101240000020DDE79EF8000001B0BDE8F08F00004F
:10125000F0B582B040F61441C4F201014FF0400CE9
:101260006423C1F800C0ADF8003000BFBDF8002015
:10127000571EADF800700AB100BFF7E700224FF02B
:10128000800E47F23054002504E000BF072A02F127
:10129000010242D246B2B6F1FF3FCCBFC1F800E036
:1012A00041F804ECADF80230BDF80260771EADF8ED
:1012B00002700EB100BFF7E740002F4641F804CCA2
:1012C00051F80C6C3D467606BEB203D4A64205F139
:1012D0000107F5D3A64216D2ADF80430BDF804607C
:1012E000771EADF804700EB100BFF7E7C1F800C07B
:1012F000ADF80630BDF80660771E002EADF806701A
:10130000C4D000BFF6E740F28820C2F2000090F897
:101310003E1041F0080180F83E1002B0F0BD000020
:10132000B0B582B040F61040C4F2010080210160E7
:1013300040210160002347F2305100BF50F8082CD3
:1013400052061A4603D48A4202F10103F6D347F249
:1013500030518A4209D340F28821C2F2000191F84B
:101360003E2042F0080281F83E20402164220160C4
:10137000ADF80420BDF804305D1EADF804500BB18B
:1013800000BFF7E750F8084C4160ADF8062000BFF9
:10139000BDF80600411EADF8061008B100BFF7E722
:1013A00040F2C2452006C2F2000502D5298801316B
:1013B0002980002803D5698804A003F04DFC6988C2
:1013C000E0B20131C009698002B0B0BD61636B5FFA
:1013D0006E203A25640A00002DE9F04184B040F601
:1013E000104790460E46C4F2010780214022396022
:1013F0003A6064221C46ADF8062000BFBDF80630F6
:101400005D1EADF806500BB100BFF7E77960ADF88F
:10141000082000BFBDF808104A1EADF8082009B129
:1014200000BFF7E7402179606421ADF80A1000BFE2
:10143000BDF80A104A1EADF80A2009B100BFF7E74F
:101440004000C0B2FFF704FFFFF76AFF3046FFF726
:10145000FFFEFFF765FF4CB1A8F1010515F8010F7C
:10146000FFF7F6FEFFF75CFF013CF7D1402080213B
:10147000786079606421ADF80C1000BFBDF80C10E5
:101480004A1EADF80C2009B100BFF7E73860002212
:1014900047F2305057F8081C4906114603D48142E0
:1014A00001F10102F6D347F2305081420CD340F2F1
:1014B0008820C2F2000090F83E1041F0080180F848
:1014C0003E1004B0BDE8F081402038606420ADF8E3
:1014D0000E0000BFBDF80E00411EADF80E1008B1A1
:1014E00000BFF7E78020386004B0BDE8F08100005D
:1014F0002DE9F04387B010238DF805300B78844632
:101500000020CDE902008DF807308DF808300DF18C
:10151000050E4FF0030807230690CDE904008DF86F
:1015200006C000BF9EF80050802600BF47B24400AE
:10153000002F48BF83EA40042E42204618BF80F0A7
:1015400007007608F2D1A8F101085FEA08640EF1FD
:10155000010EE7D1022A8DF8090023D34FF00208CB
:101560004FF001090DF1080E072400BF11F80950D2
:10157000802600270EF8085078B27B00002848BF6C
:1015800084EA47032E421F4618BF87F007077608F4
:10159000F2D109F101090EEB0800914508F10208AA
:1015A0004770E3D15000C3B202AA08206146FFF79A
:1015B00013FF07B0BDE8F083FEE7000070470000AE
:1015C000704700002DE9F04F81B040F2C83B40F277
:1015D000C63A40F2943740F23D4604460025C2F236
:1015E000000BC2F2000AC2F20007C2F2000640F28B
:1015F0001F5C4FF0320E4FF0000805E0AAF80050D3
:1016000089F001008BF8000094F8320094F8331050
:10161000884209D04A1C02FB0CF31B0C03FB1E2260
:1016200014F8018084F83320884200F089809BF808
:101630000090B9F1000F31D0BAF80000411C8AB215
:10164000032AAAF8001007F8008073D138883560A3
:10165000A6F80100B8783978F07001F13C00B27852
:10166000C1B291428BF800501CD1F0785040FF2855
:1016700048D045F25640C0F6000003F03FFD40F26E
:101680003D4640F29437C2F200064FF0320EC2F2ED
:101690000007002540F21F5C4CE000BFB8F13C0F92
:1016A000B2D1ABE745F23240C0F6000003F0D4FA05
:1016B00040F23D46C2F20006B07840F294374FF057
:1016C000320EC2F20007002540F21F5C3C2831D1E7
:1016D0007078C3282ED140F26240C2F2000090F828
:1016E000321090F83300814224D0013000FB0CF11D
:1016F000090C01FB1E0040F26241C2F2000181F8B8
:10170000330017E040F261417078C2F2000101221B
:101710000A7040F2882200F00301C2F2000282F84F
:101720002910C0F38101C0F3011082F82A1082F859
:101730002B0000BFBAF800003228FFF465AF5FE766
:1017400001B0BDE8F08F00007047000040F2882033
:10175000C2F20000016811B10168013901604168FD
:10176000002908BF00F0A2B841680139416000F0CB
:101770009DB8000082B041F20400C4F2020050F8AB
:10178000041C002241F0010140F8041C0168CFF65E
:10179000FF021140016050F8041C4FF6FF72CFF6B3
:1017A000F662114040F8041C50F8041C21F480211A
:1017B00040F8041C016821F4FE0101604FF41F0190
:1017C000416000210191009150F8041C41F0010199
:1017D00040F8041C50F8041C01F00201009101992A
:1017E00001310191009919B90199B1F5206FF1D139
:1017F00050F8041C890754BF002101210091009971
:1018000001293FD142F20001C4F202010A6842F00C
:1018100010020A600A6822F007020A600A6842F0B1
:1018200002020A600168016001680160016841F418
:1018300080610160016821F47C110160016841F45C
:101840006011016050F8041C41F0807140F8041CE4
:1018500050F8041C8901FBD5016821F003010160E7
:10186000016841F002010160016801F00C010829E2
:10187000FAD14EF60850CEF200004FF00061016040
:1018800002B07047FEE7000080B540F23820C2F297
:10189000000002F02DF800F02FFF42F61040C4F2D5
:1018A00001004FF6FE71016080BD000040F2800033
:1018B000C2F200000078002808BF704740F208011B
:1018C000C2F2000102314FF0010C03E0013801F1D6
:1018D0000C010BD00B88002BF8D0013B1A040B80B5
:1018E000F4D14A8801F802CC0A80EFE77047000083
:1018F000F0B581B040F28004C2F200042078C0B19B
:1019000040F20800C2F2000000F10805002600279E
:1019100006E000BF20780137874205F10C0508D2A8
:1019200015F8080C0028F5D0286805F8086C8047E1
:10193000F0E701B0F0BD000044F60000C4F2000082
:10194000C168890644BF01685FEA816100D47047BD
:1019500080B54068C1B240F26240C2F2000000F0BF
:101960000DFD40F28820C2F2000040F6B83141601F
:10197000BDE8804070470000FEE7000010B54268F7
:101980004FF6FF63CFF6F07302EA030CD1E90032A1
:10199000D1E902E443EA0C031A43426082684FF241
:1019A000FD73CFF6F1731A400B6942EA0E0222432F
:1019B0001A438260C26A49690023CFF6F07322F4A9
:1019C000700203EB01511143C16210BDF0B587B045
:1019D00041F21806C4F202060546306842F200449D
:1019E00040F0040030603068C4F2010440F00800A8
:1019F00042F208473060A4F5E05080210022C4F292
:101A0000010701F0ABF9A4F5C0500121002201F05B
:101A1000A5F9306840F4007030604FF4404002F0A7
:101A2000D3F856F80C0C40F4007046F80C0C56F83D
:101A30000C0C20F4007046F80C0C01AE304600F09F
:101A40006BF84FF46020039020463146FFF796FF75
:101A5000012D18D1204607210522012300F02CF882
:101A6000386840F001003860386840F0080038609D
:101A700038680007FCD4386840F00400386000BFC4
:101A800038684007FCD4204608210522012300F0D5
:101A900013F8386840F00100386000BF386800076C
:101AA000FCD4386840F00400386000BF3868400754
:101AB000FCD407B0F0BD0000B0B501EB410C4FF015
:101AC000100E092988BFACF11E0C88BF4FF00C0E18
:101AD00050F80E40072505FA0CF5AC4302FA0CF25B
:101AE00022432C256FF0400440F80E200D2B38BF08
:101AF000302538BF6FF0220403EB8302072B3CBF75
:101B000034256FF00404224443591F249440A34316
:101B1000914019434151B0BD00210122C0E900119B
:101B2000C0E90211C0E904127047000010B582B08C
:101B300040F28824C2F20004207A00210128ADF886
:101B4000061008D0F8B940F23820C2F2000001694E
:101B50000020884717E094F83E00010707D44107AA
:101B600030D440F20240C2F20000012104E040F211
:101B70000240C2F20000002140F23822C2F200020C
:101B800092690170904794F8290002280FD094F8C8
:101B90002A0002280BD094F82B00022807D094F8D2
:101BA0002800022803D094F83D00000701D002B0BD
:101BB00010BD40F23820C2F20000C16B00208847FF
:101BC00002B010BD94F83D10090717D040F238203C
:101BD000C2F2000041690DF10600884794F83D000B
:101BE000C0F3400100F00102C0F3C003C0F3800C59
:101BF0001DA0CDF800C003F02FF8C4E794F82B1017
:101C0000012905D140F23820C2F2000081689FE727
:101C100094F82910012917D094F82A10012913D01B
:101C200094F8281001290FD0810713D440F23820EE
:101C3000C2F20000017F012918BF0429A3D00329A3
:101C40007FF485AF016883E740F23820C2F20000DC
:101C500041687DE740F23821C2F2000100F0F50052
:101C6000C96884F83E0073E725642C25642C25643C
:101C70002C25640A0000000010B540F28824C2F24E
:101C80000004207A012838D194F82C0000F0FE00DE
:101C900084F82C00032000F08BFB94F83D008107B2
:101CA00009D010F00C0F01D0002008E019B102207B
:101CB00000F07EFB0BE010F00C0F08D0012000F0CC
:101CC00077FB94F82C0040F0010084F82C00A07FF2
:101CD00040B9012000F06CFB94F82C0040F00100AA
:101CE00084F82C0094F82B00002808BF10BD94F84D
:101CF0002C0040F0010084F82C0010BD10B540F21B
:101D00008824C2F20004207A012842D0002840F042
:101D1000978040F20441C2F2000140F206420B8873
:101D2000C2F20002002010805A1CB3F5967F0A8090
:101D300098BF10BD088047A003F0E0F902202060A2
:101D400020680028FCD1207A00F06EFC00200121E0
:101D500001F01AFF41F20000C4F20200016841F0F4
:101D600001010160016841F080710160392001F0DA
:101D700085FF0028FAD0022001F0A2FF01F0AAFF9F
:101D80000228FBD101F07AF834A0BDE8104003F03E
:101D9000B5B96068002847D194F82900002843D1DC
:101DA00094F82A0000283FD194F8280000283BD15D
:101DB00094F82B00C0BB40F20640C2F2000001883C
:101DC0004A1CB1F5967F028034D9002101801DA004
:101DD00003F094F90220206020680028FCD1207ACA
:101DE00000F022FC0020012101F0CEFE41F20000B3
:101DF000C4F20200016841F001010160016841F094
:101E000080710160392001F039FF0028FAD00220EA
:101E100001F056FF01F05EFF0228FBD101F02EF821
:101E20000AA003F06BF905E040F20640C2F20000A0
:101E30000021018040F20440C2F200000021018034
:101E400010BD00BF736C65657032000077616B6513
:101E500075703200736C65657031000077616B6579
:101E600075703100B0B540F2882EC2F2000E9EF8B7
:101E70003E00C00700F0B08040F22040C2F20000F7
:101E800040F222420188C2F20002148840F2244249
:101E9000B1F5526F4FF000004FF00003C2F20002A4
:101EA00088BF0120B4F5526F88BF0123B2F800C08B
:101EB00018430022BCF5526F88BF012240EA02039A
:101EC000012B4FF000000DD140F20840C2F200009B
:101ED0000288551CC92A05800FD39EF83D0040F0AA
:101EE000020008E040F208429EF83D50C2F20002B3
:101EF000108025F002008EF83D0040F6BE208142A1
:101F000028BF844215D229B940F20A40C2F200002B
:101F10000022028040F20A40C2F200000288551CF2
:101F2000B2F5C87F058014D99EF83D0040F001004D
:101F30000DE040F6BD208445E5D940F20A409EF808
:101F40003D50C2F200000022028025F001008EF810
:101F50003D0040F20C40C2F200004BB10288531C1D
:101F6000C92A03800CD39EF83D0040F0080005E02C
:101F70009EF83D300022028023F008008EF83D00DC
:101F800040F6F610814228BF844215D229B940F2AA
:101F90000E40C2F200000021018040F20E40C2F269
:101FA000000001884A1CC929028038BFB0BD9EF8D4
:101FB0003D0040F004000DE040F6F5108445E5D901
:101FC00040F20E409EF83D20C2F200000021018048
:101FD00022F004008EF83D00B0BD000010B540F2C4
:101FE0008824C2F20004207A01280BD0002840F097
:101FF000CD8094F82800002800F0C880606BBDE810
:102000001040004794F82800022815D140F21440EF
:10201000C2F2000001680131B1F5967F016040F223
:10202000B58094F82F10626B01F0FC0184F82F103A
:1020300000210160904705E040F21440C2F2000028
:102040000021016094F82B000138012805D894F88C
:10205000280048B3606B804726E040F60800C4F2D1
:1020600001000068C00606D440F26040C2F20000E1
:102070000021017018E040F26040C2F200000178D7
:102080008A1C0131C9B2C92902700DD394F82C0001
:10209000C00709D194F83E00400705D594F8280000
:1020A000012801D0206BD6E7A08AB0F5E16F1DD9D9
:1020B000E08A42F21171884218D340F21040C2F215
:1020C000000001780131CAB20B2A017014D300213B
:1020D000017094F82F0094F8281040F001000229B4
:1020E00084F82F0008D0A06B804705E040F2104034
:1020F000C2F2000000210170E08A43F2BD41884233
:102100000BD394F82F0094F8281040F00200022915
:1021100084F82F0001D0A06B804794F82C00C007F2
:1021200004D094F8280008B1606B804794F8280028
:1021300001282BD1A18A94F83E004F2917D840F0EE
:10214000100140F21840C2F20000026884F83E100C
:10215000511C4FF68142C0F20A029142016038BF21
:1021600010BD616B00220260BDE810400847C9291C
:1021700006D310F010011CBF00F0EF0084F83E0001
:1021800040F21840C2F200000021016010BD0000C2
:10219000B0B584B040F61000C4F201004FF4004125
:1021A000016040F61440C4F20100082101602021C2
:1021B00001604FF4FA7003900398411E00280391C8
:1021C000FAD14FF4FA7003900398411E002803914E
:1021D000FAD14FF4FA7003900398411E002803913E
:1021E000FAD19A20ADF80C0003A93E200222FFF795
:1021F0007FF940F28824C2F2000494F83E00FEF712
:10220000C1FA002875D04FF4FA7003900398411E6C
:1022100000280391FAD14FF4FA7003900398411EFD
:1022200000280391FAD1222503A93E200222ADF80D
:102230000C50FFF75DF994F83E009A20ADF80C00C1
:1022400003A93E200222FFF753F994F83E0096209E
:10225000ADF80C0003A93E200222FFF749F994F8DB
:102260003E00002002905720ADF8080002A93E2051
:102270000222ADF80650FFF73BF94FF4FA700390D5
:102280000398411E00280391FAD140F2CA34C2F2E9
:102290000004402021460222FEF75EFF2078C0069F
:1022A00005D40DF106013E200222FFF721F900209E
:1022B00002905720ADF8080002A93E200222FFF745
:1022C00017F94FF4FA7003900398411E0028039108
:1022D000FAD1402021460222FEF73EFF40F2BE40E6
:1022E0002278C2F2000000210180C2F3001004B085
:1022F000B0BD03A002F0B0FC002004B0B0BD00BF30
:102300006865726531000000F0B581B040F2C246E8
:1023100040F28825C2F20006002714A4C2F200058C
:1023200008E000BF2046376002F0E8FE95F83E0066
:10233000000712D4FFF72CFF0028F3D030880028C4
:10234000F0D195F83E0000F0FB0105A085F83E10A5
:1023500001B0BDE8F04002F0D1BE01B0F0BD00BF59
:10236000626D735F696E6974204F4B00626D735FBD
:10237000696E6974206661696C00000010B590F8A0
:1023800032C04BF652020CF10103C0F21E52A3FB05
:10239000022E322490F833200EFB143393420FBFE9
:1023A000002000F80C1080F83230012010BD000031
:1023B00040F22841C2F20001087070472DE9F04F49
:1023C00081B040F2CC2281460020C2F2000202E03D
:1023D000103090280AD01658B142F9DB14186768FB
:1023E0008F42F5DBB74203D1E0681AE0002018E025
:1023F000881BFEF771F80546B81BFEF76DF801461D
:102400002846FDF74AFFD4E9025106460846294608
:10241000FDF70BFF01463046FDF70DFF2946FDF79E
:10242000B2FEFEF780F80646D9E90070B9F908B0A7
:1024300040F28821584420EAE078C2F2000100907E
:1024400040468E84C9F80480FEF74FF80023C4F29A
:10245000590300224FF0000AFDF75DFF054638469C
:102460000C46FEF742F802460B4628462146FDF789
:10247000C4FFFEF771F86428A8BF6420311A102940
:10248000A9F80A0024DBBBF1000FC8BF4FF0010A16
:10249000642E1FD040F28820C2F2000090F82B007A
:1024A0000138B0FA80F0400910EA0A0012D116B1E2
:1024B00011F1100F14DCA8F5003043F28021009ACE
:1024C000A0F54A50C0F202018A42B8BF002005E0E0
:1024D000642EECD108F5003000F54A50C9F804002C
:1024E000B9F90A00B0F1FF3FDCBF0020A9F80A00EB
:1024F00099F80A0001B0BDE8F08F00002DE9F04F17
:1025000081B040F22C4147F20040C2F20001C0F21B
:10251000B7100026C1E9000634200E81FEF77CFBCF
:1025200040F2882BC2F2000B8146ABF8220040F249
:10253000CC20C2F2000002E01036902E0AD085595D
:10254000A945F9DB87197C684C45F5DBAC4203D122
:10255000F8681BE0002019E0A9EB0500FDF7BCFFBF
:102560000646601BFDF7B8FF01463046FDF795FEB5
:10257000F968BF68064608463946FDF756FE01462B
:102580003046FDF758FE3946FDF7FDFDFDF7CBFF60
:102590008046ABF82400FDF7B9FF0023C4F25903CD
:1025A00000220026FDF729FF40F22C44C2F200046D
:1025B000824620680F46FDF798FF02460B465046BC
:1025C0003946FDF7A8FEFDF7C7FF034660609BF89C
:1025D000200045F25F42C0F600020021575CB8427D
:1025E00005D8013109298BF81E60F7D103E0C1F14C
:1025F00009008BF81E0004A041464A4601B0BDE820
:10260000F04F02F029BB00BF636F756C6F6D705F98
:10261000696E69742020256420205620256420736B
:102620006F632025640A0000F0B581B044F6000411
:10263000C4F20004054641F20C0742F20846204667
:10264000C4F20207C4F2010602F064FAA4F5806045
:1026500002F060FA06F5FF6002F0C8F8284600F0C4
:1026600069F8012D38D1204602F054FAF86840F29A
:102670000045C4F2010540F0080005F50064F8606B
:1026800020464FF48061082200F068FB20464FF49A
:102690000061082200F062FB01200B2100F042FBE8
:1026A000A86840F40060A860286840F400602860D2
:1026B000002000904FF4A06001F014FA2820C0F22E
:1026C00001106C460090204601F0F2F928208DF8A8
:1026D0000000204601F0ECF9386840F400703860E2
:1026E000386820F400703860306820F001003060F5
:1026F00000F05EFC01B0F0BD40F28820C2F20000A4
:1027000090F83C00002808BF704740F60C40C4F227
:102710000100016881F400710160704740F20040DF
:10272000C4F201000021016041608160C16041612B
:1027300070470000B0B582B040F200450446C4F2D4
:102740000105FFF7EBFF41F21800C4F20200016837
:1027500041F004010160016841F0010101600020C5
:1027600001904FF48070ADF8050001208DF807004E
:102770004FF4A06001F0B6F9CCB1012C2FD105F5D2
:1027800080601021042200F0E9FA0020042100F00A
:10279000C9FAA86840F01000A860286840F010004E
:1027A00028600A208DF8040001A801F081F905F5E0
:1027B00080601021042200F0D1FA0020012100F0F5
:1027C000B1FAE86840F00200E860286840F00200D2
:1027D000286007208DF8040001A801F069F902B013
:1027E000B0BD000010B582B040F23824C2F200043F
:1027F000207FB8B145F28B1045F2AE1145F224426C
:102800000FF2240CC0F60000C0F60001C0F6000272
:102810008E23CDF800C002F01FFA0220A07700201E
:102820002077A08502B010BD665F6C65645F616C47
:102830006C6F66660000000010B582B040F238246C
:10284000C2F20004207F032822D045F28B1045F20B
:10285000AE1145F224420FF23C0CC0F60000C0F667
:102860000001C0F600027E23CDF800C002F0F4F9AA
:1028700040F28821C2F200010320897F20770220E4
:10288000A07700200139A08538BF014684F83210B6
:1028900002B010BD665F6C65645F636861726765F6
:1028A0000000000010B582B040F23824C2F20004EB
:1028B000207F022822D045F28B1045F2AE1145F25E
:1028C00024420FF23C0CC0F60000C0F60001C0F636
:1028D00000027023CDF800C002F0BEF9022020777C
:1028E0000120A07784F82A0005200021C0F26400AE
:1028F000C4E9081044F62060A185208502B010BD0F
:10290000665F6C65645F64697363686172676500C4
:10291000B0B582B040F23825C2F20005297F0446E6
:10292000062904D195F83300217888421BD045F25E
:102930008B1045F2AE1145F224420FF2300CC0F676
:102940000000C0F60001C0F60002B823CDF800C0B8
:1029500002F082F90220A877062028770020E8629A
:10296000207885F8330002B0B0BD00BF665F6C65AB
:10297000645F65727200000010B582B040F23824C6
:10298000C2F20004207F042818D045F28B1045F2D3
:10299000AE1145F224420FF2280CC0F60000C0F63A
:1029A0000001C0F600029B23CDF800C002F054F9EC
:1029B0000220A077042020770020E06202B010BD42
:1029C000665F6C65645F6865616C74680000000038
:1029D00010B582B040F23824C2F2000494F83400FA
:1029E000A8B145F28B1045F2AE1145F224420FF228
:1029F000240CC0F60000C0F60001C0F60002C62399
:102A0000CDF800C002F028F9002084F8340002B0AC
:102A100010BD00BF665F6C65645F706F72745F6E3F
:102A20006F726D616C00000070B582B040F23826A4
:102A3000C2F2000696F8340001284CD045F28B1003
:102A400045F2AE1145F2244224A5C0F60000C0F6BE
:102A50000001C0F60002D023009502F0FDF840F21C
:102A60008825C2F2000595F83D00C0F3400100F052
:102A70000102C0F3C003C0F380041DA0009402F063
:102A8000EBF895F82F0000F00101C0F3400222A0FE
:102A900002F0E2F895F8280095F8291095F82A2018
:102AA00095F82B500238B0FA80F00239023A430907
:102AB000A81EB1FA81F1B2FA82F2B0FA80F04909A7
:102AC000520945091AA0009502F0C6F80020308787
:102AD000012086F8340002B070BD00BF665F6C65EF
:102AE000645F706F72745F7761726E696E67000009
:102AF0006572726F7220636F74703A25642C63750F
:102B000074703A25642C646F74703A25642C647573
:102B100074703A25640A00006572726F72207573D2
:102B20006261206F6325642C6F7625640A000000C3
:102B30006572726F722063313A25642C63323A25D4
:102B4000642C61313A25642C70673A25640A0000D0
:102B500010B582B040F23824C2F20004207F012870
:102B600018D045F28B1045F2AE1145F224420FF217
:102B7000280CC0F60000C0F60001C0F60002622377
:102B8000CDF800C002F068F80220A077012020777D
:102B90000020A08502B010BD665F6C65645F73683D
:102BA0006F775F62617474657279000010B582B0EE
:102BB00040F23824C2F20004207F052818D045F2E4
:102BC0008B1045F2AE1145F224420FF2280CC0F6EC
:102BD0000000C0F60001C0F60002A923CDF800C035
:102BE00002F03AF80220A077052020770020E0626A
:102BF00002B010BD665F6C65645F7761726E696E6E
:102C00006700000080B582B045F28B1045F2AE112E
:102C100045F2BD120FF23C0CC0F60000C0F60001F8
:102C2000C0F6000240F20D23CDF800C002F014F807
:102C300040F61400C4F2010020210160402101602F
:102C400040F28820C2F20000002180F8281002B073
:102C500080BD00BF665F756162615F636C6F7365A5
:102C60000000000080B545F29E1045F2BD12C0F68E
:102C70000000C0F600020AA340F2152101F0ECFFAB
:102C800040F61400C4F201002021016040210160DF
:102C900040F28820C2F20000022180F8281080BD96
:102CA000665F756162615F6661756C745F6F760007
:102CB00080B582B045F28B1045F2AE1145F2BD12DF
:102CC0000FF23C0CC0F60000C0F60001C0F6000296
:102CD00040F20623CDF800C001F0BEFF40F6100020
:102CE000C4F20100202101604021016040F28820EF
:102CF000C2F20000012180F8281002B080BD00BFA0
:102D0000665F756162615F6F70656E0044F20041DD
:102D1000C4F200010A681206FCD502466FF35F2276
:102D20004A60704710B50C2240F2080E02EA810298
:102D300001F0FC01C4F2010E4FF00F0C51F80E40EF
:102D40000CFA02F324EA030341F80E3051F80E3076
:102D50009040184341F80E0010BD00002DE9F043EB
:102D60000B062AD0D0F8009002F00F0C00234FF091
:102D7000010E4FF00F08002507E000BF46EA0409E6
:102D80000135082D03F1040315D00EFA05F70F42A3
:102D9000F6D008FA03F4560629EA04060CFA03F4FE
:102DA000ECD4082A46EA040903D0182A08BF476170
:102DB000E6E70761E4E7C0F80090B1F5807F38BF2F
:102DC000BDE8F083466802F00F0C08234FF0000EB8
:102DD0004FF001094FF00F0806E000BF2643013312
:102DE000102B0EF1040E15D009FA03F70F42F6D09E
:102DF00008FA0EF5540626EA05060CFA0EF4EDD490
:102E0000082A46EA040603D0182A08BF4761E6E705
:102E10000761E4E74660BDE8F0830000002940F266
:102E20000401C4F201010A680CBF22EA0000104349
:102E30000860704740F28820C2F200006421C17728
:102E40007047000070B541F21800C4F2020001683A
:102E500040F6004441F00801C4F20104016020463C
:102E6000402145224025FFF779FF20468021452259
:102E70008026FFF773FF2561266170BD2DE9F043C1
:102E800087B041F21805C4F20205686840F60004F4
:102E900040F4003068602868C4F2010440F0050086
:102EA0002860204604214922FFF758FF20460821C8
:102EB0000822FFF753FF44F20C47C4F200074FF417
:102EC000E13800264FF00C09A7F10C006946CDF857
:102ED0000080CDE9016603960596CDF8109001F0CB
:102EE00081FE386804F5806440F4005038606868FA
:102EF0004FF4806140F4802068602868492240F0E7
:102F0000090028602046FFF729FF20464FF40061A2
:102F10000822FFF723FF07F57D706946CDE900869B
:102F2000CDE90266CDE9049601F05CFE44F60C00A2
:102F3000C4F20000016841F020010160016841F421
:102F4000005101604EF20410CEF2000080210160B9
:102F50000020FEF73BFDADF80860CDE9006628686B
:102F600042F6004440F4006028606868C4F201043E
:102F700040F0010068604FF4801000906420C0F2BF
:102F80003F0001906946204601F00EFCE06840F0E9
:102F90000100E060206840F0010020601920C0F2CC
:102FA0000010069006A800F083FD07B0BDE8F0838E
:102FB0002DE9F04F81B041F21800C4F2020001681F
:102FC00040F6000441F0100101600168C4F2010400
:102FD00041F0080101600168432241F004010160F1
:102FE0000168012541F00101016020460121FFF740
:102FF000B5FE20460221042265610425FFF7AEFEDE
:10300000204604214322FFF7A9FE2046082143223F
:1030100065610825FFF7A2FE2046102104226561A4
:10302000FFF79CFE2046202143222025FFF796FE35
:1030300020464021432265614025FFF78FFE204650
:10304000802100226561FFF789FE20464FF48071E0
:1030500043224FF4807AFFF781FE20464FF400713F
:103060004322C4F814A04FF4007BFFF777FE2046FC
:103070004FF480614322C4F814B04FF48065FFF729
:103080006DFE20464FF40061432265614FF40065F8
:10309000FFF764FE20464FF48051432265614FF4F0
:1030A0008056FFF75BFE20464FF4005143226661D5
:1030B0004FF40057FFF752FE20464FF48041432261
:1030C00067614FF48045FFF749FE20464FF4004109
:1030D000432265614FF40048FFF740FE04F5806429
:1030E000204601210022FFF739FE2046022143221B
:1030F000FFF734FE204604210422FFF72FFE20466E
:1031000008214322FFF72AFE204610214322FFF721
:1031100025FE204620214322FFF720FE20464021A5
:103120004722FFF71BFE204680214722FFF716FEAD
:1031300020464FF480714322FFF710FE40F61449F9
:10314000C4F2010920464FF400714322C9F800A0DF
:10315000FFF704FE20464FF480514322C9F800B027
:10316000FFF7FCFD20464FF400514322C9F80060F0
:10317000FFF7F4FD20464FF480414322C9F8007068
:10318000FFF7ECFD20464FF400414322C9F8005000
:10319000FFF7E4FD09F57B7420464FF4005104224B
:1031A000C9F80080FFF7DAFD20464FF480414B223A
:1031B000FFF7D4FD20464FF400414B22FFF7CEFD30
:1031C00041F20044C4F20104204601214322FFF7EA
:1031D000C5FD01206061204602214322FFF7BEFDAC
:1031E0000220606101B0BDE8F08F000010B541F22F
:1031F0001800C4F20200016840F6000441F010011A
:1032000001600168C4F2010441F00401016004F5A9
:1032100000604FF400510822FFF7A0FD2046022174
:103220000822FFF79BFD40F25040C2F2000000214F
:10323000C0E9001110BD0000017F062900F247819E
:10324000DFE811F06D0107006D0092004900BA003F
:10325000E900818D4A1C1D29828500F2108140F20F
:103260008820C2F20000807F092800F23081DFE868
:1032700010F05601AD00AA018E017D01CC01DA01EA
:10328000E5010A00740140F61400C4F201004FF495
:10329000006140F8041C4FF4806140F8041C4FF4B6
:1032A000007140F8041C4FF4807140F8041C4FF486
:1032B0000041C0F8FC134FF48041C0F8FC134FF4F8
:1032C0000051C0F8FC1340F61440C4F201004FF462
:1032D0008051016041E1818D4A1C6329828500F2A1
:1032E000978040F28821C2F20001C97F072900F2CD
:1032F000EE80DFE811F0080068014C013B018A0113
:103300009801A3013201C28D511C042AC1855DD9E7
:1033100089B2092982BF0021C1857047FFE040F2D0
:103320008821C2F2000191F82920012A0CD091F8DD
:103330002A20012A08D091F82820012A04D191F8E6
:103340003E20D20600F1EB80897F092900F2BF8080
:10335000DFE811F0E500370039011D010C015B01C8
:10336000690174010301030140F28821C2F20001E6
:1033700090F8322091F81EC0838D0521624508BF68
:103380001421994203F10101818580F0A080511C34
:10339000CAB200236245838580F8321040F2A280D1
:1033A00040F25C42BCF1000FC2F2000280F8323001
:1033B00000F08E80012394E0C18D4A1CC729C2858C
:1033C00026D8828D511C042A81857BD840F61400B2
:1033D000C4F201004FF4006101604FF480610160AC
:1033E0004FF4007101604FF48071016040F61441A8
:1033F000C4F201014FF400420A604FF480420A60B7
:103400004FF400520A604FF48051C0F8FC1370472B
:1034100000210177704740F23821C2F2000191F893
:10342000331001292ED0002918BF7047828D511CFE
:10343000042A81852BD989B2092946D840F614007F
:10344000C4F201004FF4006101604FF4806140F864
:10345000041C4FF4007101604FF4807140F8041CAB
:1034600040F61441C4F201014FF400420A604FF4E7
:103470008042C0F8FC234FF400500860C1E00169AD
:1034800000200847828D511C042A81851AD840F6F5
:103490001400C4F201004FF4006140F8041C4FF422
:1034A000806101604FF4007140F8041C4FF480719A
:1034B00001604FF40041C0F8FC1340F61441C4F21F
:1034C000010197E089B2092929D900218185704736
:1034D0001178B1FA81F35B09002918BF012180F846
:1034E00032101370BCF1000F0DD0BCF1090F03D0E6
:1034F00090F83210012906D1BCF1090F18BF4FF026
:10350000020C80F832C090F832000928DFD8DFE8DA
:1035100000F006055A3E2D7C8A95242456E740F695
:103520001400C4F201004FF4006101604FF48061A7
:1035300001604FF4007101604FF48071016040F64A
:103540001440C4F201004FF4004101604FF4804187
:1035500001604FF40051016093E040F61400C4F2A2
:1035600001004FF4006140F8041C6EE040F61400C6
:10357000C4F201004FF4006101604FF4806101600A
:103580004FF4007101604FF48071016069E040F612
:103590001400C4F201004FF4006101604FF4806137
:1035A00001604FF4007101604FF48071016040F6DA
:1035B0001441C4F201014FF400420A604FF480420A
:1035C000C0F8FC2319E040F61400C4F201004FF4E7
:1035D000006101604FF4806101604FF4007101608F
:1035E0004FF48071016040F61441C4F201014FF4C0
:1035F00000420A604FF480420A604FF40052C0F863
:10360000FC234FF480500860704740F61400C4F269
:1036100001004FF4006101604FF4806101604FF4DC
:103620000071016019E040F61400C4F201004FF48B
:10363000006101604FF4806101600AE040F614000F
:10364000C4F201004FF4006101604FF4806140F862
:10365000041C4FF4007140F8041C4FF4807140F8D2
:10366000041C4FF40041C0F8FC134FF48041C0F833
:10367000FC134FF40051C0F8FC1340F61440C4F2A0
:1036800001004FF480510160704700002DE9F04FB8
:1036900081B041F21800C4F20200016840F6000453
:1036A00041F0080101600168C4F2010441F0040125
:1036B000016020464FF400614322FFF74FFB204694
:1036C0004FF480614322FFF749FB20464FF400711D
:1036D00043224FF4007AFFF741FB20464FF48071FC
:1036E00043224FF48077FFF739FB04F580652846C5
:1036F0004FF4004143224FF4004BFFF72FFB2846C5
:103700004FF4804143224FF48046FFF727FB2846C1
:103710004FF4005143224FF40058FFF71FFB284697
:103720004FF4805143224FF48059FFF717FB204696
:103730004FF480514322FFF711FB28464FF480716C
:103740004322FFF70BFB20464FF480414322FFF753
:1037500005FB20464FF400514322FFF7FFFA4FF4D8
:10376000006060614FF48060606140F61440C4F214
:103770000100C4F814A06761C0F800B00660C0F88A
:103780000080C0F80090076040F23820C2F20000CC
:10379000012105226661C4F81480C4F8149080F8F1
:1037A0002A100021C0F26402C0E9081244F6206128
:1037B000018501B0BDE8F08F90F83410D1B1012936
:1037C0005FD1018FC38E01315A1C042B0187C28641
:1037D00026D840F61402C4F201024FF48073C2F8F6
:1037E000FC334FF4804342F8043C4FF4005342F85A
:1037F000043C3BE040F28821C2F20001087A20B389
:10380000012818BF704791F8282040F61400022ABA
:10381000C4F201003ED0012A38D0002A3FD041E056
:1038200092B2092A20D840F61442C4F201024FF4A1
:103830008073136040F61402C4F201024FF4804317
:1038400013604FF40053136010E040F61400C4F20C
:1038500001004FF40051016040F61441C4F201012F
:103860004FF480720A603EE00022C28689B2C92904
:1038700007D340F28821C2F2000191F83D100907F8
:1038800000D07047002180F83410704791F83E2036
:10389000D20604D44FF4005240F8042C02E04FF456
:1038A0000052026091F82920022A18BF012A0ED185
:1038B0004FF48072C0F8FC2391F82A10022918BF37
:1038C00001290ED14FF4804140F8041C7047002AB2
:1038D000F2D140F61442C4F201024FF48073136037
:1038E000EAE70029CDD14FF4804101607047000024
:1038F000B0B5B0F84410038C827F0131A0F84410B9
:10390000591C022A018420D0012A0AD0002A18BF9B
:10391000B0BD40F61000C4F201004FF48051416088
:10392000B0BD058DB0F826C0428CB5FBFCF4B2FBEF
:10393000F4F303FB1423013242849BB990F82A303C
:10394000B0F824E033B1012409E040F61000C4F2DD
:10395000010020E0BEF1000F04D04FF6FF740EEB23
:103960000403838492B2AA4208D390F82A3000223A
:103970004284B3FA83F2520980F82A2089B2614561
:1039800024BF00210184018C808C814240F610000C
:10399000C4F20100C1D24FF480510160B0BD0000FB
:1039A000B0B586B041F21800C4F20200416844F29A
:1039B0000C4541F4003141600168C4F2000541F05A
:1039C000050101604CF2F4302C18204604214922F4
:1039D000FFF7C4F9204608210822FFF7BFF94FF48A
:1039E000E13000900020CDE90100039005900C200B
:1039F0000490A5F10C00694601F0F4F8286840F441
:103A00000050286006B0B0BD88B0002603A8079615
:103A1000CDE90566CDE9036600F0E0F800F0A0FE10
:103A20004FF47A7000F092FE4FF080600121FFF7B2
:103A3000F5F901F02FF8FFF7B3FF1AA001F05EFBD4
:103A4000FFF7D4FB0120FDF7C1FF00F07FFFFFF778
:103A5000F9F900F051F803AD3ECD45F23410C0F64F
:103A60000000CDE9004501F0F7F8FEF74DFC4FF4FA
:103A70007A7000F06BFEFEF741FDFFF7DBF9FFF710
:103A800005FE4FF080600121FFF7C8F940F288245D
:103A9000C2F20004606B804784F83C60FDF728FFA9
:103AA000FCE700BF737973207265736574000000D2
:103AB000C17800294EF20011CEF2000105D04EF679
:103AC0000C52CEF20002126800E08031007801232F
:103AD00000F01F0203FA02F2C0F3421041F8202066
:103AE0007047000040F080604EF60C5140F0FD70D1
:103AF000CEF2000108607047B0B541F21800C4F280
:103B00000200016840F6004441F0100101600168C4
:103B1000C4F2010441F0080101600168A4F5806568
:103B200041F004010160284620214322FFF716F9E5
:103B3000284640214322FFF711F920460221432263
:103B4000FFF70CF920464FF400714322FFF706F906
:103B5000204620214322FFF701F920460821432275
:103B6000FFF7FCF828464FF400414322FFF7F6F830
:103B7000284610210422FFF7F1F8204610210422E4
:103B8000BDE8B040FFF7EAB847F2000CC4F2000C01
:103B9000DCF800304EF6105223F001031843CEF249
:103BA0000002CCF800001068022940F00400106008
:103BB00003D0012908BF30BF00E020BF106820F00B
:103BC000040010607047000041F20401C4F20201D9
:103BD0000A6822F4404210430860704780B541F201
:103BE000040EC4F2020EDEF8002002F00C02082AD5
:103BF00041F20022C0F27A0216D1DEF80030DEF87F
:103C000000C003F44033CCF3834CB3F5403F0CF1D8
:103C1000020C03D0B3F5803F04D033B940F6001254
:103C2000C0F23D020CFB02F20260DEF8002045F219
:103C30002413C2F30312C0F600039A5C0168D1405A
:103C40004160DEF80020C2F302229A5C21FA02F2FF
:103C50008260DEF80020C2F3C2229A5C45F2201393
:103C6000D140C160DEF80020C0F60003C2F381320B
:103C70009A5CB1FBF2F1016180BD000041090329AA
:103C80000FD0022907D0012911D141F20001C4F25D
:103C9000020109680CE041F20001C4F20201096A64
:103CA00006E041F20001C4F20201496A00E000218D
:103CB00000F01F0021FA00F000F001007047000042
:103CC00041F20401C4F202010A6822F00302104327
:103CD0000860704741F20400C4F202000068C0F3BB
:103CE000810070472DE9F04F81B042F2004440F26C
:103CF00088284FF600654CF600064CF6CD494CF688
:103D0000CC4A47F2333B0027C4F20104C2F2000858
:103D1000C4F2AF05C4F2A906CCF6CC49C3F6EC7ADE
:103D2000C4F2300B04E000BF002F07F1010751D1AE
:103D300020462FB3082105220123FDF7BDFEA06810
:103D400040F4A000A06000BF20688007FCD5E06CB4
:103D5000A8F80C0080B2FCF7C8FB00222B46FCF749
:103D60004CFB00223346FCF7D6FA4FF033325B4669
:103D7000FCF7D1FAFCF7F0FBA8F81600D4E700BF77
:103D8000072105220123FDF797FEA06840F4A0005B
:103D9000A06000BF20688007FCD5E06CA8F80A008E
:103DA00080B2FCF7A2FB00222B46FCF726FB002288
:103DB0003346FCF7B0FA00230022C4F25903FCF7A3
:103DC000AAFA4A465346FCF7A6FAFCF7C5FBA8F840
:103DD0001400A9E701B0BDE8F08F0000B0B540F2D3
:103DE0008824C2F2000494F83E00410709D494F8F4
:103DF0002B10012905D140F0040084F83E00FCF7A7
:103E00000FFD40F20040C2F2000001884A1CC9299F
:103E1000028025D30021018094F83E0000071FD5C1
:103E200094F83E0000F0F70084F83E00FEF76CFACC
:103E300094F83E00000708D44FF47A70206000BF69
:103E400020680028FCD1FEF759FB94F83E000007DB
:103E500006D440F23820C2F20000016800208847F2
:103E600040F60805C4F201052868800706D440F230
:103E7000B240C2F20000002101700DE040F2B240F9
:103E8000C2F2000001780131CAB2042A017003D3E2
:103E9000607A40F002006072286880070ED440F219
:103EA000B340C2F2000001780131CAB2042A0170A5
:103EB0000AD3607A40F00100607205E040F2B3403E
:103EC000C2F2000000210170607A810713D5217AC7
:103ED00000F0FD00012960720DD10020207284F8ED
:103EE0003C004020E8602020E86040F61440C4F226
:103EF000010002210160607AC10710D0217A00F030
:103F0000FE00607259B940F23820C2F20000016828
:103F100000208847012020720220C5F8080440F2E2
:103F2000584C2968C2F2000C9CF80020C1F34001F3
:103F30008A4240F25A4340F25942C2F20003C2F2AE
:103F4000000205D000251D8011B9157801351570C6
:103F50001D88681CB5F5C87F188084BF00201070CC
:103F60001078062807D394F83E0040F0020084F849
:103F70003E00002010708CF80010FDF7D7FDFEF712
:103F80002DF840F22040C2F20000018840F6EE40D9
:103F9000814221D840F22241C2F2000109888142C7
:103FA0001AD840F22440C2F20000008840F6EE41E8
:103FB000884211D840F22640C2F20000008840F644
:103FC000EF41884208D240F203410020C2F20001D2
:103FD000A4F82D0008700FE040F20340C2F2000088
:103FE00001780131CAB2652A017005D30021017040
:103FF00040F20110A4F82D00FDF73EFEFDF732FF60
:1040000094F82B000138B0FA80F0400984F83C00A5
:10401000BDE8B040FDF772BE10B540F2B444C2F244
:1040200000042178481E122800F28F80DFE800F09B
:10403000440A373C290A674186888A0A2E5E200A8C
:104040000D557600FCF7A2FC83E07620FCF7CEFD50
:1040500040F28822C2F2000240F2264192F83E303D
:10406000C2F20001088043F0010082F83E0070E0D7
:104070007220FCF7BBFD40F22241C2F20001088031
:1040800067E0FCF779FDFCF7F1FC62E07420FCF7D7
:10409000ADFD40F22441C2F20001088059E0FCF776
:1040A00001FDFCF7ABFC54E0FCF742FDFCF7C2FC61
:1040B0004FE0FCF7C7FD4CE0FCF7BAFB40F2603183
:1040C000C2F200010880FCF7C9FB40F26231C2F283
:1040D00000010880FCF7D8FB3BE03620FCF79CFD94
:1040E00040F25E41C2F20001088032E07020FCF72D
:1040F0007DFD40F22041C2F20001088029E0FCF77A
:104100002DFC40F21E41C2F20001088040F22C401A
:10411000C2F200004FF47A7101811AE012200021EE
:104120000022FCF775FE40F2EC30C2F2000000887D
:1041300040F21C41C2F2000108800AE0FCF78AFD4F
:10414000FCF792FDFCF79AFD03E0142924BF002040
:10415000207040F2B64040F2EA31C2F20000C2F2F2
:10416000000100880988084340F2BE40C2F2000006
:104170000BD040F2C821C2F20001097851B9018880
:10418000632988BF10BD013103E02178013121701E
:104190000021018010BD000040F26240C2F2000028
:1041A000FDF710BA40F29640C2F20000817E11B1D4
:1041B0000021002207E0017E4A1C0529027604D373
:1041C000417E012201314176C27610B540F238407D
:1041D000C2F20000002101600171B721017040F2BC
:1041E0008821C2F2000191F8282091F82DE091F881
:1041F0002EC091F83E104378C1F3800103F0E00334
:104200000B4440F22841C2F200010C7802F0010296
:1042100064F3430343EA021242700EF00F02C178C6
:1042200042EA0C1282704FF0FF3200BF83185B78B5
:1042300001321944022AC170F8D1C27844F6000153
:10424000C4F20001D24302710A681206FCD540F2A2
:104250006143C2F2000300221A7000BF0B681B0604
:10426000FCD5835C0132052A4B6008BF10BDF5E721
:10427000B0B540F28825C2F20005698C40F22C40AE
:10428000C2F20000FEF79AF845F25F430021C0F643
:104290000003002285F820009C5CA04205D8013272
:1042A000092AA97708BFB0BDF6E7C2F10900A877CF
:1042B000B0BD00002DE9F04F83B040F28824C2F277
:1042C0000004207A40F28025C2F2000555F8201043
:1042D000A28AE38A45F2AF20C0F6000000F0BCFCE1
:1042E000207A628955F82010A38945F28F20C0F604
:1042F000000000F0B1FC40F2204840F2264BC2F230
:104300000008C2F2000BB8F9000040F2224940F266
:10431000244ABBF90040C2F20009C2F2000AB9F90E
:104320000020A0F6AA21BAF90000A4F6AA2645F2B8
:10433000E614C0F60004A2F6AA22A0F6AA2320469C
:10434000009600F089FC40F2F430C2F200000188CF
:1043500042888388C6880789458945F2CB10C0F614
:104360000000CDE90067029500F076FC40F2C24003
:10437000C2F200004188028845F27C20C0F60000AD
:1043800000F06AFC40F21E40C2F20000B0F90010DA
:1043900045F2A220C0F6000000F05EFC40F288303A
:1043A000C2F20000017840F26630C2F200000278EA
:1043B00040F28F30C2F20000037840F29030C2F237
:1043C0000000077845F22B20C0F60000009700F0AF
:1043D00043FC40F2F230C2F20000017840F28E302D
:1043E000C2F20000027840F2EE30C2F20000037820
:1043F00040F28D30C2F20000077840F28C30C2F2F9
:104400000000067845F2FF10C0F60000CDE9007606
:1044100000F022FC40F26030C2F20000018845F258
:104420002530C0F6000000F017FC40F26230C2F206
:104430000000018845F2C820C0F6000000F00CFC26
:1044400040F2F030C2F20000018845F26A20C0F666
:10445000000000F001FC40F29230C2F2000001883E
:1044600045F25920C0F6000000F0F6FB40F28A3019
:10447000C2F20000018845F24A20C0F6000000F0B8
:10448000EBFB40F2BB40C2F20000017845F2E920AC
:10449000C0F6000000F0E0FB40F2BC40C2F20000B9
:1044A000017845F2FD20C0F6000000F0D5FB40F297
:1044B000BD40C2F20000017845F21130C0F60000A4
:1044C00000F0CAFB40F2B840C2F20000017845F2A9
:1044D000D920C0F6000000F0BFFB40F2B940C2F2A4
:1044E0000000017825A000F0B7FB40F2BA40C2F20C
:1044F0000000017825A000F0AFFB40F28930C2F245
:104500000000017825A000F0A7FB40F26430C2F261
:104510000000018826A000F09FFBB8F90000B9F95F
:104520000020A0F6AA21BAF90000BBF90070A2F69B
:10453000AA22A0F6AA23A7F6AA272046009700F0F1
:104540008BFB40F21C40C2F2000001881DA000F06D
:1045500083FB40F2C930C2F20000017820A000F0D5
:104560007BFB40F60800C4F201000068C0F3400184
:1045700022A003B0BDE8F04F00F06EBB504653746C
:1045800061747573423A307825780A005046537446
:1045900061747573433A307825780A004645545F54
:1045A0005374617475733A307825780A00000000FE
:1045B00043425F41637469766543656C6C733A2569
:1045C000640A0000626D735F626174746572795F82
:1045D00073746174757320307825780A00000000C8
:1045E00050726F74656374696F6E73547269676734
:1045F00065726564203A25640A0000006B65795F86
:104600006C6576656C3A25640A000000B0B540F22E
:104610002C40C2F20000008940F2484200B2C2F2CF
:104620000002002848BF4042D2E90013002540188C
:1046300043F10001C2E9000145F20002CAF6A932C5
:104640000023FBF76FFDC0F16400C2B240F2882086
:1046500008A1C2F200000023CC5CA24205D20133C3
:10466000072BC57708BFB0BDF6E783F00701C17718
:10467000B0BD00BF5E59534D47423C00B0B540F657
:10468000080E40F250424FF0000CC4F2010EC2F28C
:104690000002002304E000BF0433042B18BFB0BDA8
:1046A000D01881780131CCB28C4208BF81702BB117
:1046B000DEF80010C9B24C0804E000BFDEF80018B4
:1046C000C1F347340178E40712D1CC06E4D444782E
:1046D0000134E5B2032D447024BF41F0080101709C
:1046E0004178C929D8D3017801F0E60111311CE0E5
:1046F00001F0EF040907D45480F801C0CCD58178CB
:1047000063299ABFC17801310121CCB2052CC17057
:1047100005D3D15C80F803C041F00401D154017885
:1047200080F802C001F0F50102310170B4E7000029
:1047300010B540F23824C2F200042046FEF77CFD9A
:104740002046BDE81040FFF737B8000040F288214E
:10475000C2F20001086000BF08680028FCD1704761
:1047600040F20400C2F20000006844F6D351C1F2E6
:104770006201A0FB01014FF0FF3000EB9110B0F19E
:10478000807F0FD24EF21001CEF2000148604EF64B
:104790002350CEF20000F022027000208860072033
:1047A00008607047FEE7000002684B8822F0700244
:1047B0001A43026002680B8822F440721A430260B6
:1047C0008A8843F20043C262CA88C4F20103984255
:1047D000826205D042F60042C4F20102904201D149
:1047E00009890163012141617047000040F6FF71B2
:1047F000C4F2000188421CDC40F2FF71C4F20001E7
:10480000884235DCB0F1804F67D040F20041C4F2FD
:104810000001884240F0988041F21000C4F202008A
:10482000016841F002010160016821F002010160AC
:10483000704742F6FF31C4F20101884231DC41F297
:104840000001C4F20001884254D041F20041C4F298
:104850000001884278D141F21000C4F202000168E0
:1048600041F020010160016821F0200101607047E2
:1048700040F60001C4F20001884248D040F60041F1
:10488000C4F2000188425FD141F21000C4F202007C
:10489000016841F008010160016821F00801016030
:1048A000704743F20041C4F2010188423CD042F615
:1048B0000041C4F20101884218BF704741F2100064
:1048C000C4F2020050F8041C41F4006140F8041CDA
:1048D00050F8041C21F4006134E041F21000C4F2ED
:1048E0000200016841F001010160016821F001014D
:1048F0000160704741F21000C4F20200016841F00B
:1049000010010160016821F010010160704741F25F
:104910001000C4F20200016841F004010160016866
:1049200021F004010160704741F21000C4F202005E
:1049300050F8041C41F4005140F8041C50F8041CC9
:1049400021F4005140F8041C7047000010B584B0F9
:104950000020ADF80C00CDE9010041F21800C4F2CE
:104960000200016842F6004441F4006101604168C0
:10497000C4F2010441F0010141604FF48010019044
:104980006420C0F23F00029001A92046FFF70CFF0F
:10499000E06840F00100E060206840F00100206025
:1049A0001920C0F2001000906846FFF781F804B0AB
:1049B00010BD00002DE9F04786B09020ADF806004C
:1049C0000DF106013E200222FCF792FD40F28828FC
:1049D000C2F2000898F83E0098F83E00000755D44F
:1049E00040F2EC34C2F20004122021460222FCF70D
:1049F000B3FB4FF4FA7002900298411E0028029116
:104A0000FAD12078617840F2C04940EA0121C2F22F
:104A10000009C007A9F8001029D132264FF0900AEA
:104A20000DF10E054FF4FA773E2029460222ADF82B
:104A30000EA0FCF75DFD98F83E00122021460222F0
:104A4000FCF78AFB049700BF0498411E00280491DC
:104A5000FAD120786178013E40EA0121C0074FEA8F
:104A60000640A9F8001001D10028DDD118B10120BD
:104A700006B0BDE8F0879220ADF816000DF11601E2
:104A80003E200222FCF734FD98F83E00002006B0DC
:104A9000BDE8F087B0B586B041F21800C4F202005C
:104AA000416844F60C0541F4802141600168C4F27C
:104AB000000541F0090101604CF2F4302C18204649
:104AC0004FF480614922FEF749F920464FF4006116
:104AD0000822FEF743F94FF4E13000900020CDE9C1
:104AE0000100039005900C200490A5F10C0069468C
:104AF00000F078F82868802140F0200028602868BD
:104B000040F4005028604EF20410CEF20000016024
:104B100006B0B0BD44F6FF31C4F20001884223DD87
:104B200044F60041C4F20001884235D045F200014C
:104B3000C4F2000188423BD043F60001C4F20101F7
:104B4000884218BF704741F21000C4F2020050F8CA
:104B5000041C41F4804140F8041C50F8041C21F46A
:104B6000804140F8041C704744F20041C4F2000147
:104B7000884229D044F60001C4F2000188422FD1B6
:104B800041F21000C4F20200016841F4802101608A
:104B9000016821F4802122E041F21000C4F20200F9
:104BA000016841F400210160016821F4002116E050
:104BB00041F21000C4F20200016841F4801101606A
:104BC000016821F480110AE041F21000C4F20200F1
:104BD000016841F400310160016821F40031016095
:104BE0007047000070B586B00446C0680D4649683D
:104BF00020F4805005F1080608434CCEE060E068E0
:104C000020F4C0601843E060E06820F00C003043FE
:104C1000E060206901AE20F44050104320616069DB
:104C2000696920F44070084360613046FEF7D6FFA2
:104C300043F6000106F10800C4F201018C4208BFEE
:104C400006F10C000068296800EB5100B0FBF1F0A0
:104C5000A06006B070BD00000FB4054B10B503A9ED
:104C6000044A029800F018F810BC5DF814FB00002C
:104C70000D2D00080000002002E008C8121F08C126
:104C8000002AFAD170477047002001E001C1121FCD
:104C9000002AFBD1704700002DE9FF4F8DB00F4671
:104CA0000546002606E025280BD0DDE90F129047C7
:104CB0006D1C761C28780028F5D111B03046BDE86F
:104CC000F08F0024A246A1460122EC4900E00443F3
:104CD00015F8013F203B02FA03F00842F7D128788B
:104CE0002A2810D06FF02F022878A0F1300109296E
:104CF00014D80AEB8A0102EB410144F0020400EBF4
:104D0000010A6D1CF0E701CF5FEA000A03D544F405
:104D10000054CAF1000A44F002046D1C28782E28C1
:104D200017D115F8010F44F004042A280ED06FF0B3
:104D30002F022878A0F1300109290AD809EB89014E
:104D400002EB410100EB01096D1CF2E757F8049BEF
:104D50006D1C28786C280FD006DC4C2817D06828EA
:104D60000DD06A2814D104E0742810D07A280FD10D
:104D70000DE044F400140AE044F4801401E044F42B
:104D800040146978814202D104F580146D1C6D1CB9
:104D90002A786E2A1FD00CDC632A31D004DC002A6A
:104DA0008BD0582A11D1A3E0642A68D0692A0CD18B
:104DB00065E0732A2ED004DC6F2A73D0702A04D1E8
:104DC0009BE0752A6FD0782A6ED01046DDE90F126D
:104DD0009047761C50E1C4F30250022806D0032805
:104DE00009D0042801CF09D0066045E101CFF117B1
:104DF000C0E9006140E101CF06803DE106703BE182
:104E000017F8040B8DF8000000208DF80100EB4628
:104E1000012003E057F804BB4FF0FF3061074FF06B
:104E2000000102D40DE008F10101884649450FDA7E
:104E30008045F8DB1BF808100029F4D108E008F1E0
:104E4000010188468142FADB1BF808100029F6D1DF
:104E5000DDE90F23AAEB08008146214600F036F970
:104E6000304400EB080604E0DDE90F121BF8010BEB
:104E70009047B8F10108F7D221464846F7E00A21E9
:104E8000C4F302534FF0000B0891022B04D001CF62
:104E9000C117032B09D00AE0FF1D27F00707F7E829
:104EA000020108E032E01FE020E000B2C117042B4D
:104EB00001D140B2C117031E71F1000307DA4FF0B0
:104EC000000CD0EB0C006CEB01012D2302E023055C
:104ED00004D52B238DF82430012303E0E30701D010
:104EE0002023F7E7984658E00A2110E010210EE051
:104EF00010204FF0000B08900CE010214FF0000B39
:104F000044F004044FF00809089103E008214FF031
:104F1000000B0891C4F30253022B04D001CF0021EF
:104F2000032B06D006E0FF1D27F00707F7E8020174
:104F300003E080B2042B00D1C0B24FF00008230779
:104F40002BD5702A07D0DDF820C08CF0100C5CEA5D
:104F50000B0C05D00EE040238DF82430012308E02F
:104F600050EA010306D030238DF824308DF8252037
:104F700002239846DDF820C08CF0080C5CEA0B0C8C
:104F80000BD150EA010301D1630706D530238DF818
:104F900024304FF00108A9F10109582A04D038A2A1
:104FA0000B9208AA0A920BE03AA2F9E75B46089A2C
:104FB000FBF7B8F80B9B9B5C0A9A521E0A9213707F
:104FC00050EA0102F2D10A98ADEB000000F1200B8B
:104FD000600702D524F4803401E04FF00109D9457F
:104FE00002DDA9EB0B0000E0002000EB0B014144C7
:104FF0000890AAEB010AE00306D4DDE90F2321465D
:10500000504600F063F806444FF0000908E009A993
:1050100011F80900DDE90F12904709F10109761C2A
:10502000C145F4DBE0030CD5DDE90F2321465046F2
:1050300000F04CF8064404E0DDE90F123020904700
:10504000761C0899481E08900029F5DC08E00A98AB
:105050000A990078491C0A91DDE90F129047761CE5
:10506000BBF10001ABF1010BF1DC21465046DDE95B
:105070000F2300F019F806446D1C1BE609280100F7
:1050800030313233343536373839616263646566BE
:105090000000000030313233343536373839414280
:1050A00043444546000000002DE9F0410446002538
:1050B0001E461746880404D405E039462020B04730
:1050C0006D1C641EF9D52846BDE8F0812DE9F0413C
:1050D000044600251E469046C80301D5302700E04F
:1050E0002027880404D505E041463846B0476D1CAA
:1050F000641EF9D52846BDE8F081000010B50446CD
:1051000001E0FDF703FE14F8010B04490028F8D173
:10511000BDE810400A20FDF7F9BD000000000020A6
:105120000204060800000000010203040102030457
:1051300006070809737973636C6B5F66726571208B
:105140003D2025642C2068636C6B5F66726571205E
:105150003D2025642C2070636C6B315F6672657135
:10516000203D2025642070636C6B325F6672657130
:10517000203D202564206164635F636C6B5F667211
:105180006571203D202564200D0A005B25735D209C
:1051900025733A25643A257328293A200A00657652
:1051A000656E742025642025732025730A004C4FFA
:1051B000475F4C4556454C5F494E464F002E2E2FBB
:1051C0004D61696E2F6170702E6300565F63656C70
:1051D0006C733A25642C25642C25642C25642C25BD
:1051E000642C25640A0054313A25642054323A254F
:1051F000642054333A25642054343A25640A005517
:10520000565F463A25642C4F565F463A25642C5328
:1052100043445F463A25642C4F43445F463A256435
:105220002C4F43435F463A25640A004453473A25CE
:10523000642C4348473A25642C504348473A256438
:105240002C504453473A25640A004C445F566F6C17
:10525000746167653A25640A005061636B5F566F3D
:105260006C746167653A25640A00537461636B5F0F
:10527000566F6C746167653A25640A00746F7461D7
:105280006C203A2564206E61636B3A25640A004104
:105290002573206375723A25642C766F6C3A256409
:1052A0000A00626D735F637572723A25640A004189
:1052B0002573206375723A2564206D612C766F6CBE
:1052C0003A2564206D760A00416C61726D42697402
:1052D00073323A307825780A0050465374617475F9
:1052E00073413A307825780A0053616665747953C2
:1052F0007461747573413A307825780A0053616699
:10530000657479537461747573423A307825780AFC
:1053100000536166657479537461747573433A30F0
:105320007825780A00416C61726D426974733A3075
:105330007825780A00E4BF9DE68AA4E585B3E9975D
:10534000ADE78AB6E6808100E585A8E781AD00E992
:10535000809AE8AEAFE99499E8AFAF00E7A9BAE95F
:1053600097B200E58585E794B500E7A681E6ADA292
:10537000E58585E694BEE794B500E58581E8AEB89D
:10538000E58585E794B5EFBC8CE7A681E6ADA2E69E
:1053900094BEE794B500E7A681E6ADA2E58585E772
:1053A00094B5EFBC8CE58581E8AEB8E694BEE79491
:1053B000B500E58581E8AEB8E58585E794B5EFBC35
:1053C0008CE58581E8AEB8E694BEE794B500E5BC0F
:1053D00082E5B8B800E6ADA3E5B8B800E5BC80E664
:1053E0009CBA00E585B3E69CBA00E58585E794B5EF
:1053F000E698BEE7A4BA00E694BEE794B5E698BE88
:10540000E7A4BA00E794B5E6B1A0E581A5E5BAB78F
:10541000E698BEE7A4BA00E5BC80E69CBAE698BE72
:10542000E7A4BA002E2E2F4D61696E2F6C65642E95
:10543000630073756D315F65727220636C61635FC9
:1054400073756D2020256420627574206461746119
:10545000202564200A0073756D325F6572720063E7
:105460005547392B1D0E0500885400080000002008
:10547000600300002C070008A0560008600300200D
:1054800068090000884C0008512490D0031A0502D6
:105490002113E53C22081A0A02212B7D460C1CE848
:1054A00003E81E8BB542182BDD3D0C1A6402218BDC
:1054B00099410C9AA50C8B31470C8B1940483A71D5
:1054C00048490C1A0D602950100E4DC7094A553035
:1054D000F2403492802D021437920112011C369250
:1054E0000D061CFB9202063AFA061CFC922A061CC8
:1054F000FD920B063AFE063AFF06112A93061604A1
:10550000935701021C6192BC0C1C6292F706236344
:10551000921201166D9282F8022C359303542A934D
:10552000121C37933C061C389346062B3A936C1694
:105530003B93B80B021C3D93320C1C3E931E063A63
:105540003F123A41123A42121C7592230616769285
:10555000EB05021C7B92060C1C78924B063A7912E2
:105560003A7CA22B8092661C81928006168892E873
:10557000030214B0920A12021C829208123A831893
:105580001C849210061C85920C063A86301C879269
:1055900015063A95F6168D929CFF023A039649C07D
:1055A0001C659298061C669250063A67121C699216
:1055B000E4061C6A9260063A6B12167392D00702D8
:1055C0001C6F92FC0C1C709270063A71181CC492ED
:1055D0005F061CC5929F061CC69207063AC7183A7A
:1055E000C0063AC1063AC2063AC3061C08931F0613
:1055F0003A0E7E1C0F93C8063A090C1C9492FF06C3
:105600003AAFAE1CB29278062113512B1408A5288C
:105610001B0839041379291408E5271B08AD141A4F
:10562000110C01201AD1244B292A2813E3531B08FB
:10563000DC04013013B12C1B0805041A6504412950
:10564000942308524330752BC842042910435F54F9
:105650003AB41023B04F1A0714211AA01025B442EF
:10566000584D1AAF14211A70101914224B1A5714DE
:10567000211A2010257042A8483BFF4A302A4114C5
:1056800023803E1AA714190C191025A04190331A33
:105690007F14612914211A8F14C10000000000003A
:04000005080000ED02
:00000001FF
