:020000040800F2
:10000000700E002005010008871400085D1000082C
:1000100085140008250F0008E917000800000000FB
:10002000000000000000000000000000FD150008B6
:10003000A50F00080000000089140008B116000890
:100040001F0100081F0100081F010008DD1500083E
:100050001F0100081F0100081F0100080910000807
:100060001F0100081F010008291000081F010008D7
:100070001F0100081F0100081F0100081F010008E0
:100080001F0100081F0100081F0100081F010008D0
:100090001F0100081F0100081F0100081F010008C0
:1000A0001F010008211700081F0100081F01000898
:1000B0001F0100081F0100081F0100081F010008A0
:1000C0001F0100081F0100081F0100081F01000890
:1000D0001F0100081F0100081F010008B1170008D8
:1000E000E90F0008B91500081F010008DFF810D05B
:1000F00000F08EFC00480047A9480008AFF30080DC
:10010000700E00200648804706480047FEE7FEE7DD
:10011000FEE7FEE7FEE7FEE7FEE7FEE7FEE7FEE7B7
:10012000D1160008ED0000082DE9F05F054600201B
:1001300092469B4688460646814640241BE0284658
:1001400041464746224600F07CFB53465A46C01AB9
:10015000914110D311461846224600F063FB2D1A38
:1001600067EB01084F4622460120002100F05AFBB0
:1001700017EB00094E41201EA4F10104DFDC4846C4
:1001800031462A464346BDE8F09FD2B201E000F86E
:10019000012B491EFBD270470022F6E710B513462B
:1001A0000A4604461946FFF7F0FF204610BDF0B49A
:1001B00080EA0102D40F4200B2EB410F02D20246A4
:1001C000084611464A0042D0C30DDDB2C1F3C75202
:1001D000AD1A202D35DAC1F3160141F4000204B145
:1001E0005242C5F1200602FA06F12A411044B3EB4F
:1001F000D05F23D0C4B1012DA0EBC35009DCF0BC0B
:100200004FF0004202EAC352DBB200F5000000F0FA
:1002100043BB400000F1807000EBC350A0F1807040
:1002200040EAD170490009E0490841EAC071A0EBF9
:10023000C35000F50000400800EBC350F0BC00F0D4
:1002400022BB6142012202EB4101001BF6E7F0BC38
:10025000704781F00041AAE780F00040A7E780EAFC
:10026000010210B502F00043400022D04A001FD026
:10027000010E01EB1261C0F35600C2F3560240F4C6
:10028000000042F40002A0FB022000047F391404A5
:1002900000D0401C50EA124001D44000491EC2B2B6
:1002A0000C0604EBD010401C4008802A02D003E06A
:1002B000002010BD20F00100002900DA00201843C2
:1002C00010BD30B480EA010202F0004530F0004277
:1002D00021F0004013D090B1C30DD40DC2F316012C
:1002E000C0F31600E41A41F4000140F400027D342A
:1002F000914201D3641C00E04900002C02DA30BCBA
:10030000002070474FF400000023914201D3891A66
:10031000034340084FEA4101F7D151B1914202D164
:100320004FF0004105E002D24FF0010101E06FF013
:10033000010103EBC450284430BC00F0A4BA2DE9FD
:10034000FE4F804681EA0300C00F0C46009021F06A
:10035000004123F00045B8EB0200A94105D2404618
:10036000214690461C460B46024623F000401043AF
:1003700047D0270DC7F30A00C3F30A510290401A71
:10038000019040286BDAC3F3130040F4801B0098FF
:10039000924620B10023D2EB030A63EB0B0B0198CA
:1003A0005946C0F14002504600F03CFA06460D4660
:1003B00050465946019A00F054FA10EB080061418A
:1003C000002487EA115284EAE7731A4340D0009A66
:1003D00062B3019A012A4FEA075215DC001B61EB58
:1003E00002014FF0004202EA0752CDE90042001C30
:1003F00041F5801132462B4600F08BFA03B0BDE880
:10040000F08F40462146F9E7001B61EB0201001C1A
:1004100041F5801300185B412018A2F5001747EB47
:10042000030140EAD570B6196D4111E06D084FEA3D
:10043000360645EAC0754FEA0752001B61EB020120
:10044000001C41F5801149084FEA30000019514164
:1004500032462B4603B0BDE8F04F00F04BBA00988F
:10046000012240000023D0EB020263EBE07300980E
:1004700021464FEAE074B8EB000061EB0401E9E7C4
:1004800083F000435BE781F0004158E72DE9FE4F20
:1004900081EA030404F0004421F0004100944FF08D
:1004A000000B23F0004350EA01045ED052EA03043B
:1004B0005BD0C3F30A54C1F30A552C44A4F2F334BD
:1004C0000194A0FB0254C1F3130141F48011C3F362
:1004D000130343F4801301FB024400FB034E840A20
:1004E000970A44EA815447EA8357A4FB07680295B8
:1004F0008D0A05FB07854FEA932C04FB0C54270556
:10050000029D4FEA065847EA1637B5EB08056EEB31
:10051000070C870E920E47EA811742EA8312A7FB67
:100520000201B6EB0B0164EB00042B0D43EA0C3324
:100530005E1844EB1C50DA465146E7FB0201C5F356
:1005400013044FEA0B3343EA14534FEA0432019C7D
:1005500043EA0603A4F10C040294009CCDE900B424
:1005600000F0D7F903B0BDE8F08F00200146F9E7AD
:100570002DE9F04D81EA030404F0004B21F0004521
:1005800014464FF0000A23F0004150EA050220D043
:1005900054EA01021DD0C5F30A570246C5F31303FE
:1005A000C1F31300C1F30A5640F4801543F48013DD
:1005B000A7EB0608101BD64608F2FD3873EB0500C2
:1005C00002D308F1010801E092185B41B8F1000F75
:1005D00003DA00200146BDE8F08D00204FF48011C1
:1005E000064684460EE0171B73EB050705D3121B66
:1005F00063EB050306434CEA010C49084FEA30005F
:1006000092185B4150EA0107EDD152EA030012D083
:1006100082EA040083EA0501084305D0101BAB41C0
:1006200006D20122002306E000224FF0004302E040
:100630006FF0010253101AEB06004CEB085110EB5F
:100640000A0041EB0B01BDE8F04D00F053B9C10FBA
:1006500080EAE0700844CA079623002100F01CB924
:1006600096230022114600F017B90EB5C10F80EA9B
:10067000E0700844CA07002140F233438DE80E00C1
:100680000A460B4600F045F903B000BD0EB540F236
:10069000334102910021CDE900110A460B4600F0DA
:1006A00038F903B000BD0EB540F233420292002289
:1006B000CDE90022134600F02CF903B000BD20F074
:1006C0000040C10DC0F3160040F400007F2901DA9C
:1006D00000207047962903DCC1F19601C84070479D
:1006E00096398840704770B5C1F30A5201F0004551
:1006F0000024C1F3130140F2FF3341F480119A4208
:1007000001DA002070BD40F233439A42A2F2334234
:1007100003DC524200F095F800E090402C43F1D009
:10072000404270BDC1F30A5210B5C1F3130140F24B
:10073000FF3341F480119A4201DA002010BD40F2EB
:1007400033439A42A2F2334203DC524200F079F87A
:1007500010BD904010BD00F0004230F000400AD0C3
:10076000C10D01F56071C0F3160042EA0151C208E3
:1007700040071143704700200146704730B5041E02
:1007800071F1000404DB4FF00044404264EB0101CE
:10079000141E73F1000405DB1C464FF00043524267
:1007A00063EB04038B4208BF824230BD01F000437B
:1007B00030B421F0004150EA010206D00A0DA2F542
:1007C0006072C1F31301002A02DC30BC00207047C4
:1007D000440F44EAC104C100E01830BC00EBC25031
:1007E00000F051B8002801DBC0F10040002901DB16
:1007F000C1F100418142704730B50B4601460020EF
:100800002022012409E021FA02F59D4205D303FAD2
:1008100002F5491B04FA02F52844151EA2F1010253
:10082000F1DC30BD202A04DB203A00FA02F100207E
:1008300070479140C2F1200320FA03F3194390401E
:100840007047202A04DB203A21FA02F00021704789
:1008500021FA02F3D040C2F1200291400843194628
:100860007047202A06DBCB17203A41FA02F043EA10
:10087000E07306E041FA02F3D040C2F12002914059
:100880000843194670470029A8BF7047401C49001B
:1008900008BF20F00100704710B4B0FA80FC00FAE5
:1008A0000CF050EA010404BF10BC704749B1CCF110
:1008B000200421FA04F411FA0CF118BF012121439C
:1008C0000843A3EB0C01CB1D4FEA00614FEA102057
:1008D00042BF002010BC704700EBC35010440029F9
:1008E000A4BF10BC7047401C490008BF20F00100A5
:1008F00010BC704710B5141E73F1000408DA401CD8
:1009000041F1000192185B411A4301D120F001002E
:1009100010BD2DE9F04D92469B4611B1B1FA81F21E
:1009200002E0B0FA80F220329046FFF77BFF0446E7
:100930000F4640EA0A0041EA0B0153465A46084373
:1009400013D0114653EA010019D0C8F140025046B5
:10095000FFF777FF05460E46504659464246FFF7D9
:1009600061FF084305D0012004E020463946BDE878
:10097000F08D0020054346EAE0762C4337430A9881
:100980006305E40AA0EB08000022FD0A44EA47548C
:100990000A3002D500200146E9E701051019694136
:1009A000DDE9084500196941BDE8F04DA2E7C1F352
:1009B0000A52C1F3130140F2FF3341F480119A420D
:1009C00002DA00200146704740F233439A42A2F215
:1009D000334202DC5242FFF734BFFFF723BF00006F
:1009E00030B5041E71F1000404DB4FF000444042B6
:1009F00064EB0101141E73F1000405DB1C464FF08B
:100A00000043524263EB0403994208BF904230BD59
:100A1000064C074D06E0E06840F0010394E807004B
:100A200098471034AC42F6D3FFF764FBEC61000842
:100A30000C62000870B58C1810F8015B15F0070304
:100A400001D110F8013B2A1106D110F8012B03E067
:100A500010F8016B01F8016B5B1EF9D12B0705D46F
:100A60000023521E0DD401F8013BFAE710F8013BB8
:100A7000CB1A921C03E013F8015B01F8015B521ED4
:100A8000F9D5A142D8D3002070BD000038B5044686
:100A900022218DF8001000218DF80110002211464E
:100AA000572000F0AFFD06490978C1F30011A142BB
:100AB00004D0022269463E2000F090FC38BD0000C0
:100AC000600500200149082008607047100C0140B3
:100AD00002494FF4004008607047000010080140D0
:100AE00010B505F083F930B1134890F856000007AF
:100AF00003D5002010BD002010BD03F08FFEB0B163
:100B0000962000F03BFA0D480422016849F2A81033
:100B100000F084F909480422001D016849F2AC1074
:100B200000F07CF9922000F029FA012010BD9220FB
:100B300000F024FA002010BD3C000020BC00002082
:100B40000149082008607047140C014002494FF425
:100B500000400860704700001408014010B50022F2
:100B60001146642000F020FA03480178407801EB38
:100B7000002080B210BD0000A900002010B50022A6
:100B80001146622000F010FA03480178407801EB2A
:100B9000002080B210BD0000A900002070B514250F
:100BA00000240D4EE8B200F0F9F826F81400AD1C50
:100BB000641C102CF6DB342000F0F0F8074CA08207
:100BC00007490886362000F0E9F8E082382000F076
:100BD000E5F8208370BD000080050020980000200B
:100BE0003C00002010B500221146104600F0DCF950
:100BF0000549888B002806D101F111000278407860
:100C000002EB0020488410BD9800002010B500229F
:100C100011463A2000F0C8F903480178407801EB0A
:100C2000002000B210BD0000A900002010B5002275
:100C300011467F2000F0B8F90A490878497800EB9E
:100C40000122084911390A74C0F380028A7100F048
:100C50000102CA71C0F340020A72C0F3C0004872B8
:100C600010BD0000A900002010B5002211460B2085
:100C700000F09AF904480178407801EB002002491D
:100C80001139487310BD0000A900002010B50022E2
:100C900011460D2000F088F904480178407801EBF6
:100CA000002002491139887310BD0000A9000020FE
:100CB00010B5002211460F2000F076F904480178A3
:100CC000407801EB002002491139C87310BD0000C3
:100CD000A900002010B500221146032000F064F99D
:100CE0000C49888B002814D101F111021078527838
:100CF00000EB02228A72C0F380020A70C0F3C002C5
:100D00004A70C2098A70C0F34012CA70C0F3001062
:100D1000087110BD9800002010B500221146052072
:100D200000F042F90549888B002806D101F1110035
:100D30000278407802EB0020C87210BD98000020B5
:100D400010B500221146072000F02EF90B49888BC0
:100D500000280FD101F111000278407802EB002049
:100D6000C0B208738A7ACB7A1A441044012802D997
:100D70000120487110BD0020487110BD980000206E
:100D800010B50022114600F00FF9034801784078B1
:100D900001EB002080B210BDA900002010B5044670
:100DA00000221146204600F0FFF8143C07491E2C93
:100DB00005D80878497800EB012080B210BD08788A
:100DC000497800EB012080B210BD0000A90000208E
:100DD00006220249142000F077B90000A005002087
:100DE000022202491C2000F06FB90000A605002075
:100DF00002220249202000F067B90000A805002067
:100E000002220249242000F05FB90000AA05002058
:100E10000149202008607047140C01403EB50023B2
:100E20000293009301938DF80000000A8DF80100F1
:100E30008DF80210314C012A28D0C1F30720022A74
:100E40003FD0042A21D18DF80300080C8DF804004E
:100E5000080E8DF80500062269463E2000F0BEFA15
:100E6000E08B002811D102F045F80621684600F019
:100E700076F88DF8080008208DF80900022202A9F2
:100E8000602000F0ABFA02F035F83EBD032269465F
:100E90003E2000F0A3FAE08B0028F6D102F02AF8F9
:100EA0000321684600F05BF88DF8080005208DF8F6
:100EB0000900022202A9602000F090FA02F01AF85C
:100EC0003EBD8DF80300042269463E2000F086FAFC
:100ED000E08B0028F4D102F00DF80421684600F000
:100EE0003EF88DF8080006208DF80900022202A9BC
:100EF000602000F073FA01F0FDFF3EBD9800002075
:100F000010B500221146122000F04EF80448017876
:100F1000407801EB002002491139088410BD00001F
:100F2000A9000020FEE770B50346002040F2071636
:100F300011E080221D78040603D540007040C0B245
:100F400001E04006000E154201D07040C0B25208C8
:100F5000002AF0D15B1C491EC9B2EAD270BD10B59F
:100F60000023002204E0845C2344DBB2521CD2B292
:100F70008A42F8D3D843C0B210BD000008B50021A2
:100F800000918DF80000000A8DF8010002226946E8
:100F90003E2000F023FA024890F85600000708BDF2
:100FA0003C0000207047000038B50546144600207C
:100FB00000908DF80010080A8DF80100002C06D171
:100FC00002220849284600F07FF801F093FF012C27
:100FD00006D102226946284600F000FA01F08AFF95
:100FE00038BD0000A900002005480168090506D5A4
:100FF000C11401600348017841F02001017070477D
:10100000140401409200002005480168890706D5B4
:10101000022101600348017841F0800101707047AE
:1010200014040140920000200A480168C9060FD547
:1010300010210160084991F84100820703D440F073
:10104000020081F8410011F8560F40F0400008708E
:1010500070470000140401403C000020FEE72DE929
:10106000F04104460F4615461E4600F00FF9600693
:10107000000E00F0C5F800F04DF9384600F0C0F859
:1010800000F048F900F002F9012000EB4400C0B282
:1010900000F0B6F800F03EF90024771E0DE000F0F5
:1010A00059F82855BC4203DA002000F093F802E01A
:1010B000012000F08FF8641CE4B2B442EFD3BDE825
:1010C000F04100F0FBB800002DE9F84304460D465E
:1010D00017461D4E0020B0837B001C4A2146082085
:1010E00000F0C2F91AA0006800908DF80140DFF806
:1010F0005C8098F800008DF8030004216846FFF733
:1011000012FF98F80110884202D0B08B401CB083C7
:1011100098F800002870012410E018F814002855F1
:1011200028190121FFF7FFFE08EB440149788842A6
:1011300002D0B08B401CB083641CE4B2BC42ECD340
:10114000307FBDE8F8830000980000206005002093
:10115000100011002DE9F04300240022DFF86C900C
:101160008020C9F800000025184F47F23056083F8C
:101170004FF040086006040EC9F8008001E0521CE0
:1011800092B23868400601D4B242F8D3B24204D3D6
:101190000F48017841F008010170C9F8008064200F
:1011A00002F0A0FB3868000601D544F001040748AE
:1011B000001DC0F80080642002F094FB6D1CEDB2AD
:1011C000082DD7D32046BDE8F0830000100C014065
:1011D0009200002010B5094980230A1D002801D083
:1011E0000B6000E0136040240C60642002F07AFB86
:1011F0001460BDE81040642002F074BB100C014084
:101200002DE9F04F054600221E4F40263E60642027
:1012100002F068FB0024DFF86CB04FF08008A7F103
:101220000409ABF10C0B47F2305A280602D5C9F875
:10123000008001E0C7F800806806050E642002F017
:1012400051FBC9F8006001E0521C92B2DBF80000CB
:10125000400601D45245F7D3524506D30A480178D7
:1012600041F008010170BDE8F08F642002F03AFB04
:101270003E60642002F036FB641CE4B2082CD4D338
:10128000F1E70000140C01409200002030B50A483C
:101290008022026040240460642002F023FB064D9B
:1012A0002D1D2A60642002F01DFB2C60BDE830403B
:1012B000642002F017BB0000100C014070B5002242
:1012C00012484024046080260660642002F00AFB75
:1012D0000E4D2D1F2C600D4947F230500C3901E0A6
:1012E000521C92B20B685B0601D48242F8D3824250
:1012F00005D30748017841F00801017070BD2C60EA
:10130000642002F0EFFA2E6070BD0000140C014062
:101310009200002070B50020194D802129604024E2
:101320002C60174A47F23051083A01E0401C80B265
:1013300013685B0601D48842F8D3884204D311486D
:10134000017841F0080101702C60642002F0CAFAB3
:101350001068C0F3C0150A48001D0460642002F044
:10136000C1FA094C15B12088401C20801DB161884C
:1013700006A000F03BFA6088401C6080284670BDE3
:10138000100C0140920000209400002061636B5F0C
:101390006E203A25640A00002DE9F04104460F460C
:1013A00015461E46FFF772FF6006000EFFF728FF86
:1013B000FFF7B0FF3846FFF723FFFFF7ABFF00242E
:1013C00006E0285DFFF71CFFFFF7A4FF641CE4B2F2
:1013D000B442F6D3BDE8F041FFF770BF2DE9F04FFE
:1013E00087B082460F469146142102A8FEF7D4FE2C
:1013F00005254FEA49604FEA106B1AA0006801907A
:101400008DF805A038788DF8060038788DF808003A
:10141000032101A8FFF787FD8DF8090002260124AA
:101420000DF108080EE0385D08F80600761C385DFE
:101430008DF8000001216846FFF775FD08F80600E9
:10144000761C641C4C45EED35B4602AA514608202C
:1014500000F011F8002802D06D1EEDB2F4D207B0F2
:10146000BDE8F08F1000000010B5DBB20820FFF7D8
:10147000F6FD002010BD10B5DBB20820FFF78CFF91
:10148000002010BDFEE7704770470000F8B5064623
:101490000025184C1EE0617811B101291AD107E02E
:1014A0009DF800003C2815D1A5800120607011E056
:1014B000A288114B511C9DF8000089B2A18098545C
:1014C000032903D16570184600F01AF8A088322865
:1014D00000D365706946304601F04EFB0028DAD132
:1014E00006484168002903D100F83E5F45708570C9
:1014F000F8BD0000E8020020FA0500203C000020B2
:1015000038B5002200211C4C002323600388A4F876
:1015100001308378E370455C2A44D2B2491CC9B2D9
:101520000029F8D03C32D1B2A2788A4216D182F09A
:10153000FF0083420ED111490120087060781049E4
:1015400000F003020A70C0F381024A70C0F3011078
:10155000887038BD0BA000F049F938BD0CA000F030
:1015600045F9A0783C28F8D16078C328F5D16946C0
:10157000104801F001FB38BD8902002082020020E2
:101580007A00002073756D325F6572720A00000088
:1015900073756D315F65727220636C61635F737523
:1015A0006D2020256420627574206461746120259B
:1015B00064200A002C06002006494FF40030086021
:1015C0000548016821F00201016001688906FCD527
:1015D0007047000014040140042800400549012020
:1015E00008700548016821F0010101600168890661
:1015F000FCD570470000002004280040704703F02D
:10160000CBBB00001CB50023019300938DF80400B0
:10161000000A8DF80500002A21D0C8B2012A2BD07B
:10162000022A1BD18DF80600080A8DF80700042253
:1016300001A93E20FFF7D2FE01F05CFC042101A8C5
:10164000FFF78DFC8DF8000006208DF801000222C6
:1016500069466020FFF7C2FE01F04CFC1CBD02226F
:1016600001A93E20FFF7BAFE01F044FC02220F4917
:101670004020FFF729FD1CBD8DF80600032201A9BB
:101680003E20FFF7ABFE01F035FC032101A8FFF778
:1016900066FC8DF8000005208DF8010002226946E5
:1016A0006020FFF79BFE01F025FC1CBD60050020BB
:1016B00006480168002902D00168491E016041689E
:1016C00011B14168491E416000F03AB83C00002069
:1016D00010B50F48016841F00101016041680D4AF1
:1016E0001140416001680C4A11400160016821F419
:1016F00080210160416821F4FE0141604FF41F0127
:101700008160FFF77CFF05494FF00060086010BD65
:10171000001002400000FFF8FFFFF6FE08ED00E0B9
:1017200010B5054803F028F801F058FC03494FF6BE
:10173000FE70086010BD00009C020020102C0140CB
:1017400030B500200B4C211F0D7810E000EB40035A
:1017500004EB83014A8842B1521E92B24A8022B9F8
:101760008A884A80012104F82310401CC0B2A84294
:10177000ECD330BDF40200202DE9F04100240B4DE4
:1017800000262F1F0CE004EB440015F8201029B1AF
:1017900005F8206005EB800080688047641CE4B297
:1017A00038788442EFD3BDE8F0810000F4020020D5
:1017B00010B50A48006880060FD508480C38006844
:1017C00080060AD5054808380068C1B2044801F00F
:1017D000E8F9044940F6B830486010BD0C480040B4
:1017E0002C0600203C000020FEE700000FB4054B53
:1017F00010B503A9044A029800F0DAF810BC5DF8AD
:1018000014FB0000B93600085805002002E008C8A3
:10181000121F08C1002AFAD170477047002001E06A
:1018200001C1121F002AFBD1704700002DE9FF5FA4
:1018300082B00021DDE90430020DDDF840B0034341
:1018400018D044F61050A2F2FF32424315141198FA
:1018500001281FD0A5EB0B00401C5FEA000A4FF0E7
:1018600000064E4FDFF83891B046504615D5CAF104
:10187000000413E0119801244AA3012801D16FEA62
:101880000B010298119AC0E90031C0E9024206B08A
:10189000BDE8F09FCBF10000DFE704460021404A9D
:1018A000491842EB0450CDE9001012E0E00707D0E0
:1018B00032463B4640464946FEF7E8FD80468946AB
:1018C00032463B4610461946FEF7E0FD06460F46F7
:1018D0006410002CEAD1DDE90401DDE90023BAF14E
:1018E000000F06DAFEF7D2FD42464B46FEF7CEFD6C
:1018F00005E0FEF73DFE42464B46FEF739FE044644
:101900000E460022284BFFF76BF803D84FF0FF304C
:10191000014607E00022254B20463146FEF70FFD29
:10192000FFF745F8102409E0002C0ADB0A22002307
:10193000FEF7FAFB039B30321A55641E50EA01028F
:10194000F2D1641C039AC4F111031444119A012AC0
:1019500003D0012208430DD10AE0084304D000203F
:101960004FF0110B119072E7A3EB0B056D1E0DE00C
:101970005B4504DD4FF0000205F1010504E003DAE8
:101980004FF00002A5F10105002AECD00298119950
:10199000C0E90231C0E9004579E7000000001440C9
:1019A0000000F03F300000000000F0430000E03F86
:1019B0002DE9FF4F95B09A46884606460025EEE190
:1019C000252877D100242746F94A0121039400E015
:1019D000044316F8013F203B01FA03F01042F7D10F
:1019E00030782A2811D06FF02F033078A0F1300220
:1019F000092A16D8039A44F0020402EB820203EB90
:101A000042021044761C0390EFE758F8042B03922F
:101A1000002A03DA504244F40054039044F00204D4
:101A2000761C30782E2816D116F8010F44F00404E5
:101A30002A280DD06FF02F023078A0F13003092B47
:101A400009D807EB870302EB4303C718761CF3E7BB
:101A500058F8047B761C30786C280FD006DC4C28B4
:101A600017D068280DD06A2814D104E0742810D04B
:101A70007A280FD10DE044F400140AE044F48014F5
:101A800001E044F440147278824202D104F58014DB
:101A9000761C761C307866280BD013DC582877D05B
:101AA00009DC002875D04528F6D04628F4D0472810
:101AB0001AD193E118E0632835D0642879D06528DD
:101AC00012D18BE1702873D008DC6728F1D0692827
:101AD0006FD06E280DD06F2806D1ACE073282CD0C3
:101AE000752874D0782853D05246179990476D1CAA
:101AF00054E1C4F30250022809D003280DD0D8F8CD
:101B0000001004280DD00D6008F1040846E1D8F853
:101B10000010EA17C1E90052F6E7D8F800100D806E
:101B2000F2E70D70F0E718F8041B8DF800100020A4
:101B30008DF80100EB46012003E058F804BB4FF09C
:101B4000FF3061074FF0000102D40DE009F10101FF
:101B50008946B9420FDA8145F8DB1BF809100029E4
:101B6000F4D108E009F1010189468142FADB1BF852
:101B700009100029F6D103985346A0EB0907214626
:101B80003846179A00F080FA284400EB090507E070
:101B900044E008E10DE01BF8010B5246179990470D
:101BA000B9F10109F7D2534621463846179AF2E0B7
:101BB00039E00A21C4F302524FF0000B0091022ACF
:101BC00006D058F8040BC117032A09D00AE023E015
:101BD00008F1070020F00702F2E80201904605E054
:101BE00000B2C117042A01D140B2C117002906DA98
:101BF0000A460021404261EB02012D2202E022054B
:101C000004D52B228DF80420012203E0E20701D045
:101C10002022F7E7914657E00A2100E010214FF01B
:101C2000000B00910BE010214FF0000B44F0040476
:101C30000827009103E008204FF0000B0090C4F348
:101C40000252022A05D058F8040B0021032A08D0BA
:101C500008E008F1070020F00702F2E802019046D0
:101C600003E080B2042A00D1C0B24FF0000922077D
:101C70002AD53278702A07D0DDF800C08CF0100C1D
:101C80005CEA0B0C05D00EE040228DF80420012206
:101C900008E050EA010306D030238DF804308DF8B7
:101CA000052002229146009B83F0080353EA0B03B0
:101CB0000AD150EA010201D1620705D530228DF820
:101CC00004204FF001097F1E3278582A04D039A22F
:101CD0000C920CAA02920BE03BA2F9E75B46009A39
:101CE000FEF722FA0C9B9B5C029A521E0292137022
:101CF00050EA0102F2D1029804A9081A00F1200B5F
:101D0000600702D524F4803400E001275F4502DD3E
:101D1000A7EB0B0000E0002000EB0B010090039804
:101D20004944401A0390E00306D453462146179ACB
:101D3000039800F0A9F90544002706E001A85246DF
:101D4000C05D179990476D1C7F1C4F45F6DBE00383
:101D50000CD553462146179A039800F095F905448F
:101D600004E030205246179990476D1C0099481E98
:101D700000900029F5DC08E00298029952460078AC
:101D8000491C0291179990476D1CBBF10001ABF102
:101D9000010BF1DC5BE100F065F90544761C30785D
:101DA00000287FF40DAE19B02846BDE8F08F000082
:101DB0000928010030313233343536373839616221
:101DC00063646566000000003031323334353637E5
:101DD000383941424344454600000000600700D4C2
:101DE000062708F1070020F00700F0E802238046EC
:101DF00003F0004C5FEA0C0001D097A009E0200539
:101E000001D596A005E0E00701D095A001E0AFF272
:101E10004C001390307823F0004365280CD006DC8A
:101E2000452809D046281DD047287FD13BE06628A9
:101E300018D067287AD136E00021112F01DB11205C
:101E400000E0781CCDE9000104A90CA8FFF7EEFC26
:101E5000DDE90D010C9A4FF0000B07F1010910921A
:101E600000914EE04FF000400097CDE9011004A929
:101E70000CA8FFF7DBFCDDE90D020C9B0F994FF07E
:101E8000000B91461093009211B9791C00EB0109E7
:101E9000B7EB090003D4C0F1FF3B07F10109A9EB3F
:101EA0000700019042E0012F00DA01270021112FE5
:101EB00001DD112000E03846CDE9000104A90CA89D
:101EC000FFF7B4FCDDE90D010C9A00914FF0000B17
:101ED000B946109221070FD4009A4A4503DA914679
:101EE00001E0A9F10109B9F1010F05DD109AA9F18D
:101EF0000101515C3029F4D0B84202DA10F1040F2C
:101F000003DA0121CDE9011010E0002803DC83444D
:101F1000A9EB000102E0411C494500DD8946A0EB28
:101F20000B00401C01904FF000400290200705D4A8
:101F30000198484502DB4FF0FF30019000208DF8FA
:101F40004B0002980DF14B07B0F1004F25D0022055
:101F50000C902B200D90029800280CDA4042029041
:101F60002D200D9007E00A210298FEF745FC303144
:101F7000029007F8011D0C99481E0C900029F2DC14
:101F800002980028EFD1791E0D980870307800F083
:101F9000200040F0450007F8020D11A8C01BC01D2D
:101FA00002901398007800B1012000EB090101981C
:101FB00001EBE071029801440398401A401E03901F
:101FC000E00306D453462146179A039800F05CF8C4
:101FD00005441398007818B15246179990476D1C24
:101FE000E00323D553462146179A039800F04CF896
:101FF00005441BE0BBF1000F07DB0098584504DDEA
:102000001098179910F80B0001E0179930205246EC
:10201000904701980BF1010B401E05F1010501905D
:1020200004D12E205246179990476D1CB9F100013A
:10203000A9F10109DEDC05E017F8010B52461799FA
:1020400090476D1C0299481E02900029F4DC53460B
:102050002146179A03989EE62D0000002B000000F1
:10206000200000002DE9F041044600251E461746D9
:10207000880404D405E039462020B0476D1C641E56
:10208000F9D52846BDE8F0812DE9F0410446002548
:102090001E469046C80301D5302700E0202788045B
:1020A00004D505E041463846B0476D1C641EF9D59D
:1020B0002846BDE8F081000030B5D1E900231A437D
:1020C00043680B4C23401A434260D1E902231A4370
:1020D0000B698468074D2C4023431A438260C26A0F
:1020E000898A22F47002491E42EA0151C16230BD60
:1020F000FFFEF0FFFDF7F1FF70B586B00646304CED
:10210000A06940F00400A061A06940F00800A0614F
:10211000002280212B4801F021FB002201212A48C6
:1021200001F01CFBA06940F40070A0614FF4404036
:1021300002F0E8FCE06840F40070E060E06820F441
:102140000070E060684600F07DF84FF46020029077
:102150001E4D69462846FFF7AFFF1C4C0834012E80
:1021600017D1012305220721284600F031F8206805
:1021700040F001002060206840F0080020602168E5
:102180000907FCD4206840F004002060216849075A
:10219000FCD4012305220821284600F019F8206804
:1021A00040F00100206020680007FCD4206840F067
:1021B0000400206020684007FCD406B070BD000019
:1021C0000010024000080140000C014000240140C2
:1021D00070B5072509290AD9C668A1F10A0404EBDC
:1021E0004404A540AE43A2401643C66007E006691A
:1021F00001EB4104A540AE43A240164306611F24F3
:10220000072B09D2456B5B1E03EB83029440A54369
:1022100091400D43456370BD0D2B09D2056BDB1F4B
:1022200003EB83029440A54391400D43056370BDC9
:10223000C56A0D3B03EB83029440A54391400D43D7
:10224000C56270BD00210160012242610161C1606F
:102250008160416070470000064890F840100129F5
:1022600006D110F8561F41F004010170FEF76EBC54
:10227000704700003C00002010B51549488A421CF8
:102280004A82C82822D90020488201F1380494F8F3
:10229000560000071AD514F8560F20F008002070D9
:1022A00000F036FC14F85609000705D44FF47A7094
:1022B00003F096FC00F070FD94F85600000705D47A
:1022C00004480168BDE810400020084710BD000028
:1022D000040000209C020020064890F840100129CC
:1022E00003D0002180F854107047012180F8541069
:1022F000704700003C0000202DE9FC5F002501959F
:102300000026DFF884A1624C604F9AF8080021692A
:102310004FF00108002817D0012813D1504622465B
:1023200094F82C3090F85600D268ABB1810709D5EB
:1023300020F002008AF85600009568469047216C0C
:1023400000208847BDE8FC9F00208847216C0020C2
:10235000884787F80080F5E79AF85630DFF834911F
:102360005FEA037B494B93F800C0494B9B690AD550
:10237000BCF1000F5CD0009568469847216C0020A6
:1023800088473D7054E040070BD4BCF1000F4FD09C
:10239000CDF8008068469847216C002088473D7042
:1023A00046E03D4BDAF82400984207DCCDF8008087
:1023B00068469047216C0020884739E0344A9AF8F3
:1023C0005500526940B9DAF82C0010F0FF4F09D1DE
:1023D0009AF84100400705D501A89047616C00209C
:1023E000884725E09AF83E00022826D09AF83F3028
:1023F000022B22D09AF84070022F1ED09AF83CC0CF
:10240000BCF1020F19D0012F28D001282DD0012BAB
:102410002BD0BCF1010F28D0207F03282CD001281D
:1024200006D0042804D000208847216C002088476B
:10243000002E87D189F8005084E7012699F8000022
:10244000401CC0B289F800006428F1D989F8005016
:1024500001A89047616C00208847E9E7A168002047
:102460008847216C00208847E2E7616800208847A0
:10247000216C00208847DBE7216800208847216C19
:1024800000208847D4E700003C0000205C050020C5
:102490009C0200205D0500200000704210B513482A
:1024A000134A0021048840F6EE40A2F1380384422A
:1024B0000BD8104C2488844207D80F4C24888442BF
:1024C00003D80E4C248884420BD99879401CC0B2A2
:1024D0009871642804D99971012002F8420F507054
:1024E00010BD02F8421F5170997110BD7E0300208B
:1024F0003C00002080030020820300208403002091
:1025000010B52C4C207A002821D0012851D114F884
:10251000410F20F001002070032000F05DFB207DC2
:10252000413C810701D4C10703D0010705D441070D
:1025300003D4214A616A91420EDC002000F04CFB7A
:1025400094F8410040F0010084F8410019E0BDE832
:102550001040002000F040BB810701D4C10703D028
:10256000022000F039FB0CE0010701D4400708D538
:10257000012000F031FB94F8410040F0010084F8A4
:10258000410094F8200010B10C48007840B90120B7
:1025900000F022FB94F8410040F0010084F8410073
:1025A00094F84000002804D014F8410F40F00100D6
:1025B000207010BD3C000020000070429E000020F2
:1025C00070B51A4C207801282ED1194E3068351F6D
:1025D000296840EA01401749884207D1002002F0EB
:1025E000A9FB1348183801688906FCD530682968AA
:1025F000114B40EA014058614FF46161B0FBF1F2C8
:102600005A62B0FBF1F201FB12053C22B5FBF2F578
:102610009D62B0FBF1F501FB1500B0FBF2F102FB8E
:102620001100D8620020207070BD00000000002062
:102630001C2800407F5101000400002070B50446B2
:1026400000261E4D4FF47A72002C06D0012C24D1A6
:1026500005F13800416891B11DE02E62298A4B1CBA
:102660002B82914219D92E8215A0FFF7BFF8304670
:1026700002F0EAFBBDE8704014A0FFF7B7B890F88D
:102680003E1041B990F83F1029B990F83C1011B9AB
:1026900090F8400010B12E622E8270BD296A481C4D
:1026A00028629142F8D92E620CA0FFF79FF82046CD
:1026B00002F0CAFB0CA0FFF799F8EDE70400002038
:1026C000736C656570284F4646290A0077616B6513
:1026D0007570284F4646290A00000000736C656536
:1026E00070284F4E290A000077616B657570284F7E
:1026F0004E290A002DE9F041574E96F85600C007C2
:102700007DD056485649574A00884FF452670024F6
:1027100009881288A6F10803B84203D8B94201D843
:10272000BA420DD91D8805F1010CA3F800C0642D33
:1027300007D996F8555045F0020586F8555000E047
:102740001C8096F8555040F6F84C5FEA857809D51C
:10275000604507D2614505D2624503D225F00205E6
:1027600086F8555040F6BE25A84203D3A94201D3AE
:10277000AA420FD200B95C805D8805F10108A3F878
:102780000280642D07D996F8555045F0010586F86A
:10279000555000E05C8096F855505FEAC5780BD044
:1027A00040F6D228404507D9414505D9424503D9CD
:1027B00025F0010586F85550B84203D8B94201D832
:1027C000BA420DD99D8805F10108A3F80480642D53
:1027D00007D996F8555045F0080586F8555000E0A1
:1027E0009C8096F855505FEA05780BD5604509D274
:1027F000614507D2BA4205D225F0080500E028E07D
:1028000086F8555040F6F615A84203D3A94201D3E5
:10281000AA420DD200B9DC80DC88651CDD80642C06
:1028200007D996F8553043F0040386F8553000E098
:10283000DC8096F855305C070BD540F61E24A0428C
:1028400007D9A14205D9A24203D923F0040086F892
:102850005500BDE8F08100003C0000207E03002010
:1028600080030020820300202DE9F041864E307A5B
:10287000002819D0012878D102F02CF9A6F13805EA
:10288000687196F83C000024022815D0EC6196F897
:102890004000012822D0022820D0687918B396F889
:1028A0004100C00720D029E096F83C0000285CD009
:1028B000F06CBDE8F0410047E869401CE861B0F504
:1028C000967F52D996F8440020F0010020F00200D3
:1028D00086F84400EC61F06C8047D8E796F83C003D
:1028E00008B1F06C80470FE096F85600400705D518
:1028F00096F83C00012801D0B06C804796F8410062
:1029000040F0040086F84100687980B996F84100EB
:1029100041070CD5A989491C89B2A981B1F5FA7F73
:1029200006D920F0040086F84100AC8100E0AC81BB
:10293000B08A40F6E44141F65838884216D9F08A08
:10294000404513D82879401CC0B228710A280ED9F6
:102950002C713C36307A40F00100307216F83C0998
:10296000022804D0306D804701E07EE02C71B08AEF
:1029700042F6EC47B0F5166F17D9F08A404514D9E6
:10298000B84212D82879401CC0B228710A280DD943
:102990002C713C36307A40F00100307216F83C0958
:1029A000022803D0306D804700E02C71B08A43F6D6
:1029B0009828B0F5E16F17D9F08AB84214D940458C
:1029C00012D22879401CC0B228710A280DD92C7166
:1029D0003C36307A40F00100307216F83C0902288B
:1029E00003D0306D804700E02C71F08A40450AD951
:1029F0003C36307A40F00200307216F83C0902286A
:102A000001D0306D804796F84100C00704D096F899
:102A10003C0008B1F06C804796F83C0001281DD1BD
:102A2000B08A50280FD296F8560040F0100086F871
:102A30005600A869401CA861144988420ED9AC61AF
:102A4000F06C80470AE096F85610CA0605D5C828EB
:102A500003D921F0100086F85600AC6196F83C00CE
:102A6000012802D1B08A10B1EC81BDE8F081E8897B
:102A7000401C80B2E881B0F5FA6FF6D9EC81F06CB9
:102A8000BDE8F041004700003C00002080FC0A0047
:102A900010B5FEF71DF8FEF753F8FEF7B9F900F090
:102AA00029FA00F027FA00F025FA9A20FEF766FAD4
:102AB000FEF716F8E8B100F01DFA00F01BFA22202C
:102AC000FEF75CFA9A20FEF759FA9620FEF756FABE
:102AD0000120FDF7DBFF002211465720FEF792FD93
:102AE00007490020488307480078C00606D5012022
:102AF00010BD05A0FEF77AFE002010BD002010BD1D
:102B000098000020600500206865726531000000B3
:102B100070B500260E4C0F4D08E02E806E800EA082
:102B2000FEF764FE94F85600000710D4FFF7B0FFDC
:102B30000028F2D028880028EFD114F8560F20F092
:102B400004002070BDE8704007A0FEF74FBE70BDC6
:102B50003C00002094000020626D735F696E697410
:102B6000206661696C0A0000626D735F696E69744A
:102B7000204F4B0A0000000090F8323090F83320CC
:102B8000934201D100207047825C0A7010F8331F15
:102B9000491C3222B1FBF2F302FB13110170012038
:102BA000704730B590F832201446521C3223B2FBE5
:102BB000F3F503FB152290F83330934201D1002046
:102BC00030BD015580F83220012030BD01484078E9
:102BD00070470000820200200149487070470000E1
:102BE000820200202DE9F04704460A46DFF8808182
:102BF00098F8400001281ED00021104600F084F90A
:102C0000FDF75DFDA8F83200B4F9081060680844CB
:102C10006060B8F832008246FDF722FDE168FDF7FA
:102C200018FB064698F84000DFF84891524F0025FF
:102C3000012802D01EE00121DFE7BAF15A0F19D3B3
:102C4000B9F90000FDF711FD21F0004100224B4BC6
:102C5000FDF794FD0ED23888401C80B238800328DE
:102C60000FD998F8340040F0020020F0010088F8F5
:102C7000340006E03D8098F8340020F0020088F827
:102C8000340098F84000DFF8F8A001281CD0B8F80C
:102C90003200C8B9B9F90000FDF7E7FC21F00041A6
:102CA00000225346FDF76AFD0ED27888401C80B2A0
:102CB000788003280FD998F8340040F0010020F004
:102CC000020088F8340006E07D8098F8340020F097
:102CD000010088F8340098F834002A49820701D5A9
:102CE000616002E0C00700D0656098F840000128EC
:102CF0000BD1B8F83220642A02D0234A964204DD70
:102D0000224A6068104460600FE001280DD0B8F8D6
:102D1000320010B11E48864207D91C4A60685242F0
:102D200010446060002800DA65606068002800DCFC
:102D300065606068884200DB61602068FDF795FC93
:102D400005460E466068FDF790FC00225346FDF7ED
:102D50009DFB2A463346FDF70BFCFDF727FDE0609F
:102D60000C49884200DDE160E068BDE8F0870000C2
:102D70003C0000208E0300209C03002000C0624025
:102D8000000059400074B7010000964280320200F2
:102D9000000096C20000C8422DE9F047294E28489D
:102DA00030604FF00008C6F80480A6F80880342090
:102DB000FDF7F4FF244F3886002100F0A5F8FDF759
:102DC0007EFC1FFA80F9A7F832903068FDF74DFCC1
:102DD00004460D464846FDF759FC00221B4BFDF703
:102DE000C7FB22462B46FDF751FBFDF77CFC7060CC
:102DF0000024174D285DFDF733FCF96AFDF7F2FC5E
:102E000004D2C4F1090087F8200004E087F820808C
:102E1000641C092CEEDB97F82000092807D197F8ED
:102E200034103846890702D4082180F820103A8EE1
:102E3000798E7368BDE8F04706A0FEF7D7BC0000A6
:102E40000074B701600600203C00002000005940DB
:102E500008610008636F756C6F6D705F696E6974EF
:102E60002020256420205620256420736F632025B0
:102E7000640A000010B50446194803F061F81948C7
:102E800003F05EF8184802F0F3FE204600F0C6F8A2
:102E9000012C01D102F0D4FF1449C86840F400703D
:102EA000C860C86820F40070C8601148016821F04B
:102EB00001010160012C0ED0FDF70AFEFDF702FEB4
:102EC0000F20FEF75BF80F20FEF758F82046BDE80C
:102ED000104000F035BDFDF739FEFDF731FEF5E796
:102EE0000048004000440040002C01400010024017
:102EF0000824014008B54FF4FA7000900098411E74
:102F00000091FBD208BD00002DE9F04104460C22DF
:102F1000002930D00020304B29E003EB00110D6870
:102F2000A54223DC4D68A54220DB03EB00100D68B1
:102F30004668AE4202D1C868BDE8F081D1E90270AE
:102F40003946FDF786F98046701BFDF780FB064683
:102F5000601BFDF77CFB3146FDF7B3F94146FDF7F9
:102F60007EF93946BDE8F041FDF721B9401C904299
:102F7000D3DB0020E0E70020174BC03328E003EB51
:102F800000110D68A54222DC4D68A5421FDB03EB52
:102F900000100D684668AE4201D1C868CCE7D1E99F
:102FA00002703946FDF755F98046701BFDF74FFB5F
:102FB0000646601BFDF74BFB3146FDF782F94146A3
:102FC000FDF74DF93946BDE8F041FDF7F0B8401C7A
:102FD0009042D4DB0020AFE7A0030020054890F822
:102FE0005400002804D00448016881F40071016095
:102FF000704700003C0000200C0C014006490020F6
:103000000860091D0860091D0860091D0860024963
:10301000143108607047000000040140F8B5044610
:10302000FFF7ECFF2A49886940F00400886188694D
:1030300040F001008861002000908DF8010001201F
:103040008DF802008DF80300224E306840F4003005
:103050003060204D083D286840F4003028604FF46F
:10306000A06001F0C1FC1C4FC4B1012C2FD104227F
:103070001021384600F072FB0421002000F05AFBBA
:10308000306840F010003060286840F01000286080
:103090000A208DF80000684601F074FC042210211B
:1030A000384600F05BFB0121002000F043FB09489B
:1030B000001D016841F002010160286840F0020033
:1030C000286007208DF80000684601F05BFCF8BD21
:1030D00000100240080401400008014038B50A4CC5
:1030E000207F00280ED0094800908F2308A20CA151
:1030F0000FA0FEF77BFB0220A07700202077E08561
:1031000084F82C0038BD00009C020020B16000084B
:103110002E2E5C4D61696E5C6C65642E6300000050
:103120004C4F475F4C4556454C5F494E464F00005B
:103130005B25735D2025733A25643A257328293A67
:10314000200A000038B50E4C207F032816D00D4809
:1031500000907F230CA210A113A0FEF747FB0320D1
:1031600020770220A0770020E085144890F8200006
:1031700008B1401E00E0002084F8340038BD000093
:103180009C020020A46000082E2E5C4D61696E5CDC
:103190006C65642E630000004C4F475F4C455645FC
:1031A0004C5F494E464F00005B25735D2025733A06
:1031B00025643A257328293A200A00003C000020A3
:1031C0003EB5104C207F02281BD00F480090712381
:1031D0000EA212A115A0FEF709FB02202077012004
:1031E000A0770020E08564210522CDE9002144F686
:1031F0002060002302901A46012104F11E0000F015
:103200001BFD3EBD9C020020946000082E2E5C4DEC
:1032100061696E5C6C65642E630000004C4F475F13
:103220004C4556454C5F494E464F00005B25735D4B
:103230002025733A25643A257328293A200A00008C
:1032400038B505460D4C207F062804D194F835008A
:103250002978884211D00A480090BC2309A20DA108
:1032600010A0FEF7C3FA0220A077062020770020E6
:10327000E0852086287884F8350038BD9C0200203F
:10328000D96000082E2E5C4D61696E5C6C65642E01
:10329000630000004C4F475F4C4556454C5F494E1C
:1032A000464F00005B25735D2025733A25643A255F
:1032B0007328293A200A000038B505460C4C207FB7
:1032C000042813D00B4800909D230BA20EA112A03E
:1032D000FEF78CFA02201C34A0700420207000211C
:1032E0006182A1822878A0760120207438BD000078
:1032F0009C020020BE6000082E2E5C4D61696E5C51
:103300006C65642E630000004C4F475F4C4556458A
:103310004C5F494E464F00005B25735D2025733A94
:1033200025643A257328293A200A000038B5084C4C
:1033300094F8380000280AD006480090CA2306A254
:1033400009A10DA0FEF752FA002084F8380038BD1C
:103350009C020020E36000082E2E5C4D61696E5CCB
:103360006C65642E630000004C4F475F4C4556452A
:103370004C5F494E464F00005B25735D2025733A34
:1033800025643A257328293A200A000038B5254CCF
:1033900094F8380001283BD023480090D42323A27E
:1033A00026A12AA0FEF722FA2D4D687DC0F38001E8
:1033B0000091C0F3C00300F00102C0F3400129A056
:1033C000FEF714FA2879C0F3400200F001012FA0A3
:1033D000FEF70CFA15F8400902281AD000200090D8
:1033E00095F83C00022816D0002395F83F000228EB
:1033F00013D0002295F83E00022810D0002129A009
:10340000FEF7F4F90020A0876087012084F83800D7
:1034100038BD0120E3E70123E7E70122EAE70121C4
:10342000EDE700009C020020F56000082E2E5C4DA8
:1034300061696E5C6C65642E630000004C4F475FF1
:103440004C4556454C5F494E464F00005B25735D29
:103450002025733A25643A257328293A200A00006A
:103460007C0000206572726F7220636F74703A2561
:10347000642C637574703A25642C646F74703A25FB
:10348000642C647574703A25640A00006572726F6A
:10349000722075736261206F6325642C6F762564DA
:1034A0000A0000006572726F722063313A25642C45
:1034B00063323A25642C61313A25642C70673A25D1
:1034C000640A000038B50A4C207F01280FD0094853
:1034D0000090622308A20CA10FA0FEF787F902203A
:1034E000A077012020770021E18584F82C0038BDE9
:1034F0009C020020816000082E2E5C4D61696E5C8C
:103500006C65642E630000004C4F475F4C45564588
:103510004C5F494E464F00005B25735D2025733A92
:1035200025643A257328293A200A000038B50A4C48
:10353000207F05280ED009480090AD2308A20CA1D9
:103540000FA0FEF753F90220A07705202077002076
:10355000E085208638BD00009C020020CB6000087A
:103560002E2E5C4D61696E5C6C65642E63000000FC
:103570004C4F475F4C4556454C5F494E464F000007
:103580005B25735D2025733A25643A257328293A13
:10359000200A000008B50948009040F25F2308A205
:1035A0000BA10FA0FEF722F9124820210160402153
:1035B0000160114800210170417008BD546000088D
:1035C0002E2E5C4D61696E5C6170702E6300000090
:1035D0004C4F475F4C4556454C5F494E464F0000A7
:1035E0005B25735D2025733A25643A257328293AB3
:1035F000200A0000140801407800002010B5094B93
:1036000009A24FF41A710CA0FEF7F0F80E48202121
:103610000160402101600D480221017000214170CC
:1036200010BD0000616000082E2E5C4D61696E5C6B
:103630006170702E630000006576656E74202564ED
:103640002025732025730A0014080140780000200B
:1036500008B50948009040F2572308A20BA10FA01B
:10366000FEF7C4F812482021016040210160114892
:1036700001210170417008BD486000082E2E5C4D8C
:1036800061696E5C6170702E630000004C4F475F93
:103690004C4556454C5F494E464F00005B25735DD7
:1036A0002025733A25643A257328293A200A000018
:1036B000100801407800002004490A681206FCD571
:1036C000024AC0F30801121D116070470044004017
:1036D00002494CF6CC4008607047000000300040C2
:1036E00010B545F2555000F01FF8062000F008F81C
:1036F00040F20D3000F012F8BDE81040FFF7E8BFCF
:1037000001494860704700000030004002494AF615
:10371000AA2008607047000000300040014988601E
:103720007047000000300040014908607047000009
:103730000030004010B58A07120F0F23934021F08C
:103740000304054921448C689C438C608B6890403D
:1037500003438B6010BD0000000001402DE9F047DD
:10376000002311F0FF0F4FF0010A4FF00F0902F094
:103770000F0723D004680AFA03FC1CEA010F19D0D2
:103780009E00550610D409FA06F5AC4307FA06F573
:103790002C43182A02D0082A03D00BE0C0F814C02A
:1037A00008E0C0F810C005E009FA06F5AC4307FAD6
:1037B00006F52C435B1C082BDDD304600B0A27D0D5
:1037C0004568002303F108040AFA04F818EA010F17
:1037D0001AD09E00540611D409FA06FC25EA0C04FE
:1037E00007FA06F52543182A02D0082A03D00BE071
:1037F000C0F8148008E0C0F8108005E009FA06F46B
:10380000A54307FA06F425435B1C082BDAD3456071
:10381000BDE8F087054A002903D051680143516093
:1038200070475168814351607047000000000140BB
:103830002DE9F041154A0028D2E9006700DA00209E
:10384000C317301847EB030103C204460D46104A64
:10385000002320462946FCF767FC0C4908390880FC
:1038600020462946FCF71FFF0A4C00222346FCF79E
:103870007FFE0022084BFCF77BFE00222346FCF76C
:1038800002FEBDE8F041FCF791BF000028050020D2
:103890000074B7010000594040777B41024901485C
:1038A000486270470000C8423C00002010B50B4839
:1038B000816941F008018161094C4522402120467F
:1038C000FFF74CFF452280212046FFF747FF0448C1
:1038D0004021103001608021016010BD00100240C5
:1038E000000C014001B500E000BFBDF80000411E22
:1038F0000091F9D208BD000010B500F0A3FF02F05E
:10390000E3FA0020FEF7F8FB02F024FAFFF7CEFFFF
:1039100001F074F800F030FE0E20FDF72FFBFDF7EC
:103920000FF9064890F85600400703D5BDE810404F
:10393000FDF70CB9BDE81040FDF7CAB83C00002007
:103940002DE9F05F81469548816941F01001816160
:10395000816941F008018161816941F0040181615F
:10396000816941F00101816101218806FFF752FF61
:10397000DFF82C824FF48077182239464046FFF753
:10398000EDFE874C14342760182261154046FFF77E
:10399000E5FE601520604FF4806B182259464046C2
:1039A000FFF7DCFE201520604FF4006A1822514614
:1039B0004046FFF7D3FEE014206041001822404645
:1039C000FFF7CCFEA014206045001822294640468F
:1039D000FFF7C4FE25606E00182231464046FFF70F
:1039E000BDFE26606F4C182239462046FFF7B6FE12
:1039F000DFF8B08108F11408C8F800701822A1148B
:103A00002046FFF7ABFEA014C8F800001822294694
:103A10002046FFF7A3FEC8F8005018223146204682
:103A2000FFF79CFEC8F80060AF0018223946204618
:103A3000FFF794FEC8F800705FEA09004FF0020932
:103A40003AD0422202212046FFF788FEA8F1040066
:103A5000C0F80090042259462046FFF77FFE04225A
:103A600051462046FFF77AFE042211462046FFF712
:103A700075FEDFF82CA1182204215046FFF76EFED8
:103A8000182208215046FFF769FE422208212046ED
:103A9000FFF764FE422210212046FFF75FFE42221C
:103AA00020212046FFF75AFE3F4890F85600400775
:103AB00019D5FDF74BF818E0422202212046FFF706
:103AC0004DFEC8F80090182259462046FFF746FEE2
:103AD000182251462046FFF741FE182204212046B5
:103AE000FFF73CFEC5E7FCF7F3FFA14608224021A3
:103AF0004846FFF733FE082280214846FFF72EFE96
:103B0000042202215046FFF729FE2946274D0822AC
:103B10002846FFF723FE042210215046FFF71EFE21
:103B2000422220215046FFF719FE1D4C202014345C
:103B30002060422240215046FFF710FE40202060C6
:103B4000C400422221464846FFF708FEC8F800405C
:103B5000002280215046FFF701FE00220121484645
:103B6000FFF7FCFD182201215046FFF7F7FD182250
:103B700031462846FFF7F2FD182239462846FFF75E
:103B8000EDFD0B4C182201212046FFF7E7FD2046F2
:103B9000BDE8F05F18220221FFF7E0BD00100240EF
:103BA00000080140000C01403C00002000100140D2
:103BB0000014014010B50E4A00231178814204D050
:103BC000538110B95178491C517051894C1C548152
:103BD000B1F5C87F00D953705178052906D304493F
:103BE0008E310C7844F002040C705370107010BDCC
:103BF0000400002010B50C48816941F0100181617A
:103C0000816941F004018161082291020748FFF7B0
:103C1000A5FD082202210648FFF7A0FD0548002166
:103C20000160416010BD0000001002400010014022
:103C3000000801408D02002070B504AC70CC017307
:103C400042808380C4800581468170BD2DE9F84F94
:103C50004FF40062DFF80CA490F81CB0DFF8FC937E
:103C600053109410D5101601FD49D7009AF820A0E2
:103C70004FF4005C4FF48058BBF1070F13D2DFE81C
:103C80000BF00414D3FBFAF9F800C9F80020C9F8C6
:103C90000030C9F80040C9F800500E600F60C1F84C
:103CA00000C0C1F80080BDE8F88FB0F82EA00AF17E
:103CB000010BA0F82EB0BAF11E0F70D2E94890F8AF
:103CC00020000A28EFD2DFE800F005142536475817
:103CD0006B7C8C9AC9F80020C9F80030C9F8004004
:103CE000C9F800500E600F60C1F800C0C1F8008034
:103CF000D9E7C9F80020C9F80030C9F80040C9F870
:103D000000500E600F60C1F800C0D548001FC0F819
:103D10000080C8E7C9F80020C9F80030C9F80040A1
:103D2000C9F800500E600F60CD48001FC0F800C0F9
:103D3000C1F80080B7E7C9F80020C9F80030C9F819
:103D40000040C9F800500E60C548001F0760C0F869
:103D500000C0C1F80080A6E7C9F80020C9F800300B
:103D6000C9F80040C9F80050BD48001F0660076050
:103D7000C0F800C0C1F8008095E7C9F80020C9F874
:103D80000030C9F80040B548001F0560B448001F66
:103D900006600760C0F800C0C1F8008083E73DE01E
:103DA000C9F80020C9F80030AC48001F0460056065
:103DB000AB48001F06600760C0F800C0C1F8008073
:103DC00071E7C9F80020A548001F03600460056082
:103DD000A348001F06600760C0F800C0C1F800805B
:103DE00061E79E48001F02600360046005609C4814
:103DF000001F06600760C0F800C0C1F80080974847
:103E0000001F02600360046005609548001F0660A3
:103E10000760C0F800C0C1F8008044E7016901B044
:103E20000020BDE8F04F0847DFF838B29BF83EE0CD
:103E3000BEF1010F21D09BF83FE0BEF1010F1CD075
:103E40009BF83CE0BEF1010F17D19BF856B05FEA3A
:103E5000CB6B12D5C9F80020C9F80030C9F8004072
:103E6000C9F800500E600F60C1F800C0C1F80080B2
:103E700019E7FAE2C0E2D2E1BFE0BAF10A0F8DD24F
:103E8000DFE80AF005063748596A7C8D9DAC0AE7E1
:103E9000B0F82EA00AF1010B1FFA8BFBA0F82EB090
:103EA000BAF1050F10D2C9F80020C9F80030C9F8DE
:103EB0000040C9F800500E600F60C1F800C06848AB
:103EC000001FC0F80080EEE6BBF10A0F0ED2C9F861
:103ED0000020C9F80030C9F80040C9F800500E6051
:103EE0000F60C1F800C0C1F80080DCE60021C18588
:103EF000D9E6C9F80020C9F80030C9F80040C9F86F
:103F000000500E600F605648001FC0F800C0C1F896
:103F10000080C8E6C9F80020C9F80030C9F80040A0
:103F2000C9F800500E604E48001F0760C0F800C07E
:103F3000C1F80080B7E6C9F80020C9F80030C9F818
:103F40000040C9F800504648001F06600760C0F8EE
:103F500000C0C1F80080A6E6C9F80020C9F800300A
:103F6000C9F800403D48001F05603D48001F06603D
:103F70000760C0F800C0C1F8008094E6C9F80020CE
:103F8000C9F800303548001F046005603448001F40
:103F900006600760C0F800C0C1F8008083E6C9F879
:103FA00000202E48001F0360046005602C48001F9D
:103FB00006600760C0F800C0C1F8008073E62748BB
:103FC000001F02600360046005602548001F066052
:103FD0000760C0F800C0C1F8008064E61F48001FF9
:103FE00002600360046005601D48001F06600760F2
:103FF000C0F800C0C1F8008055E690F834B0CDF8A4
:1040000000B0D34502D14FF4FA6A01E04FF4FA7AD6
:104010004FF0640BBAFBFBFBB0F82EA00AF1010EC7
:10402000A0F82EE0D34585D24FF0000AA0F82EA0CC
:10403000DDF800A0DFF82CB00AF1010A0AF0FF0A4F
:1040400080F834A09BF820B0DA4518D94FF0000A68
:1040500080F834A0DFF80CA006E00000140801404E
:10406000140C01403C0000209AF820E0DFF8ACB4CA
:104070004FF0010ABEF1000F0ED08BF800A0DFF860
:10408000A0A49AF820B0BBF1000F1ED090F834B075
:10409000BBF1010F15D018E09BF800E0BEF1000F56
:1040A00002D080F834A003E04FF0000A80F834A07A
:1040B00002D14FF0010A01E04FF0000A8BF800A096
:1040C000DDE74FF0020B80F834B09AF820A0BAF187
:1040D000090F03D14FF0090A80F834A090F834009A
:1040E0000A2889D2DFE800F00514243444546473AC
:1040F000818EC9F80020C9F80030C9F80040C9F81D
:1041000000500E600F60C1F800C0C1F80080CAE521
:10411000C9F80020C9F80030C9F80040C9F80050BB
:104120000E600F60C1F800C0FE48C0F80080BAE51C
:10413000C9F80020C9F80030C9F80040C9F800509B
:104140000E600F60F748C0F800C0C1F80080AAE513
:10415000C9F80020C9F80030C9F80040C9F800507B
:104160000E60F0480760C0F800C0C1F800809AE512
:10417000C9F80020C9F80030C9F80040C9F800505B
:10418000E84806600760C0F800C0C1F800808AE512
:10419000C9F80020C9F80030C9F80040E2480560BD
:1041A000E04806600760C0F800C0C1F800807AE50A
:1041B000C9F80020C9F80030DB4804600560D94820
:1041C00006600760C0F800C0C1F800806BE5C9F860
:1041D0000020D548036004600560D248066007608F
:1041E000C0F800C0C1F800805DE5CF480260036000
:1041F00004600560CB4806600760C0F800C0C1F8E5
:10420000008050E5C8480260036004600560C5484E
:1042100006600760C0F800C0C1F8008043E590F870
:1042200036A0BAF1000F1DD0BAF1010F8FD1B0F84E
:1042300030A00AF1010B1FFA8BFBA0F830B0BAF1E5
:10424000190F75D2C9F80020C9F80030C9F800402C
:10425000C9F800500E600F60C1F800C0B148C0F846
:10426000008020E5B0F82EA00AF1010BA0F82EB0D6
:10427000BAF1640F7DD2DFF8A8A29AF828A0BAF1AB
:10428000080F84D2DFE80AF004344455657685933C
:10429000B0F830A00AF1010B1FFA8BFBA0F830B088
:1042A000BAF1050F0FD2C9F80020C9F80030C9F8DB
:1042B0000040C9F800500E600F60C1F800C0994876
:1042C000C0F80080EFE4BBF10A0F0ED2C9F800205D
:1042D000C9F80030C9F80040C9F800500E600F60FE
:1042E000C1F800C0C1F80080DDE400210186DAE4F5
:1042F000C9F80020C9F80030C9F80040C9F80050DA
:104300000E600F608748C0F800C0C1F80080CAE4A2
:10431000C9F80020C9F80030C9F80040C9F80050B9
:104320000E6080480760C0F800C0C1F80080BAE4A1
:104330004DE0C9F80020C9F80030C9F80040C9F8BC
:104340000050784806600760C0F800C0C1F80080DF
:10435000A9E4C9F80020C9F80030C9F80040724843
:104360000560704806600760C0F800C0C1F80080B2
:1043700099E429E0C9F80020C9F800306A480460CF
:104380000560684806600760C0F800C0C1F800809A
:1043900089E4C9F80020644803600460056061484E
:1043A00006600760C0F800C0C1F800807BE45E488A
:1043B00002600360046005605A4806600760C0F848
:1043C00000C0C1F800806EE4002101776BE4BBF10E
:1043D000320F0ED2C9F80020C9F80030C9F80040E9
:1043E000C9F800500E600F60C1F800C0C1F800802D
:1043F00059E40021018656E4B0F830A00AF1010B1F
:10440000A0F830B0BAF1C80F2CD2B0F82EA00AF143
:10441000010B1FFA8BFBA0F82EB0BAF1050F0CD2DE
:10442000414802600360046005603E480660076022
:10443000C1F800C0C0F8008035E4BBF10A0F0ED20D
:10444000C9F80020C9F80030C9F80040C9F8005088
:104450000E600F60C1F800C0C1F8008023E40021A5
:10446000C18520E4002101771DE4DFF8B0A00AF146
:10447000040A9AF835A0BAF1000F03D0BAF1010F7F
:104480006DD131E0B0F82EA00AF1010B1FFA8BFBC1
:10449000A0F82EB0BAF1050F11D2DFF88CA0CAF83F
:1044A0000020C9F80030CAF80040C9F800501D4A81
:1044B00016600F60C2F800C0C1F800804FE0BBF189
:1044C0000A0F0ED2C9F80020174A1360C9F800403D
:1044D00015600E60134A1760C1F800C0C1F8008073
:1044E0003DE00021C1853AE0B0F82EA00AF1010BB1
:1044F0001FFA8BFBA0F82EB0BAF1050F1BD2DFF824
:1045000028A0CAF80020C9F80030CAF80040C9F84D
:104510000050044A16600F6008E000009802002076
:104520003C000020100C014010080140C2F800C0FF
:10453000C1F8008013E0BBF10A0F0ED2C9F80020C9
:10454000C9F80030C9F80040C9F800500E600F608B
:10455000C1F800C0C1F8008001E00021C185018ED2
:10456000642902D2491C018606E4016901B00020D9
:10457000BDE8F04F084700002DE9FE4F3A48816939
:1045800041F008018161816941F004018161C41435
:10459000432221463548FFF7E1F84FF48069432272
:1045A00049463248FFF7DAF84FF4007A4322514681
:1045B0002E48FFF7D3F8E510432229462B48FFF792
:1045C000CDF84FF4004B432259462948FFF7C6F86F
:1045D000E600432231462648FFF7C0F8A7004322F1
:1045E00039462348FFF7BAF84FF480584322414632
:1045F0001F48FFF7B3F8432241461C48FFF7AEF8C7
:10460000432229461A48FFF7A9F8432231461748A2
:10461000FFF7A4F8432239461448FFF79FF81348E0
:1046200014300460C0F80090C0F800A00560104984
:104630001431C1F800B00E600F60C1F800800D6049
:1046400006600760C0F8008064210522CDE90021E2
:1046500044F62060002302901A4601210548FFF726
:10466000EBFABDE8FE8F0000001002400008014098
:10467000000C0140BA0200202DE9F0474FF480738E
:104680003B4C90F83860DFF8E4809A015110251F08
:10469000DFF8E0C008F10409002E2BD0012E27D14D
:1046A000868F761C8687468F4FF0000A771CBFB234
:1046B0004787052E04D2C8F800302A60296008E038
:1046C0000A2F04D2C9F800302260216001E0A0F86E
:1046D0003AA0818FC8290BD99CF855108A0707D4B6
:1046E000CA0705D10A0703D4490701D480F838A0C6
:1046F000BDE8F0879CF8080078B30128F8D19CF851
:104700003C0020B1012804D002280BD109E021602F
:1047100008E09CF85600C00601D5216002E029603F
:1047200000E029609CF83E0020B1012805D0022855
:1047300008D105E0C9F8003004E0C8F8003001E015
:10474000C8F800309CF83F0028B1012806D00228A4
:10475000CED12A60CCE72260CAE701E02A60C7E731
:104760002160C9F800302260C2E70000100C01404F
:10477000140801403C0000202DE9F043018C491C45
:104780008AB20284B0F84810491CA0F84810817F12
:10479000DFF884C04FF48057002909D0ACF1040839
:1047A000012908D0022901D1C8F80070BDE8F083C2
:1047B000CCF80070FAE7038DC58C418CB3FBF5F69D
:1047C000B1FBF6F94C1CA4B206FB1911448451B993
:1047D00090F82A1019B1818C491C818403E0818CE6
:1047E00009B1491E818400269C4206D3468490F874
:1047F0002A1061B1002180F82A10AA4200D3068451
:10480000018C808C814204D2C8F80070CEE701216F
:10481000F1E7CCF80070C9E71408014070B5002436
:10482000074D04EB440005EB400135F810000A7910
:104830004988FCF7F3FA641C472CF2D3012070BDC1
:10484000D000002010B586B01448C16941F4003191
:10485000C161816941F005018161114C4922042146
:104860002046FEF77BFF082211462046FEF776FF22
:104870004FF4E130009000200190029003900590E9
:104880000C2004906946074801F0A4FB05480C3051
:10489000016841F40051016006B010BD00100240F3
:1048A000000801400044004086B001F0A1F9142145
:1048B00001A8FBF771FC01A800F02EF94FF47A75FE
:1048C000284601F08DF92849886940F00100886187
:1048D000886940F008008861886940F004008861B8
:1048E00001218806FEF796FF432208211F48FEF7A4
:1048F00035FF1E4908201431086004034322214675
:104900001B48FEF72BFF1A481430046001F0DCFA54
:10491000FFF798FF17A0FCF769FFFFF76BF901207D
:10492000FDF7EAFB01F016FAFEF7C0FF00F066F8AB
:10493000FEF7EEF8284601F053F9FEF72DFAFEF7E0
:10494000ADFFFFF719FE00F089F9FEF7C9FE0C482C
:10495000817821F00401817000210170FEF7D6FEFC
:10496000FCF70AFFFAE7000000100240000C0140CB
:10497000000801407379732072657365740A000042
:104980009000002070B50F23C27801260178002A1C
:104990001ED0144A126802F4E062C2F5E062120A04
:1049A000C2F10404D3404578A54082781A402A43D6
:1049B000120101F1E02181F80024007800F01F01CC
:1049C0008E404009800000F1E020C0F8006170BD19
:1049D00001F01F0086404809800000F1E020C0F887
:1049E000806170BD0CED00E0024908430249086097
:1049F000704700000000FA050CED00E070B51F489C
:104A0000816941F010018161816941F00801816192
:104A1000816941F004018161194C43222021204623
:104A2000FEF79CFE432240212046FEF797FE154DDF
:104A3000432202212846FEF791FE432261152846B3
:104A4000FEF78CFE432220212846FEF787FE4322F4
:104A500008212846FEF782FE43224FF400412046FB
:104A6000FEF77CFE042210212046FEF777FE284642
:104A7000BDE8704004221021FEF770BE0010024015
:104A800000080140000C01400B4A136823F00103A9
:104A9000034313600948026842F0040202600129DE
:104AA00002D0022902D002E030BF00E020BF01683E
:104AB00021F00401016070470070004010ED00E03B
:104AC00003490A6822F4807242EA002008607047B5
:104AD00000700040094800680949C0060AD50889E5
:104AE000401C80B2421C0A81C82801D901207047AD
:104AF000002070470020088170470000080801402E
:104B00000400002003494A6822F4404202434A60FC
:104B1000704700000010024010B5264B5968264A25
:104B2000C1F38101002927D0012927D0022927D0EC
:104B30000260596801F0F0010909204A545C0168DB
:104B4000E14041605C6804F4E064240A145D21FAE9
:104B500004F484605C6804F46054E40A125DD1409B
:104B6000C1605A6802F44042920B144B1B1F9A5CBE
:104B7000B1FBF2F1016110BD0260DAE70260D8E733
:104B8000596801F440325968C1F38341891C4AB124
:104B9000B2F5803F0AD0B2F5403FCAD1084A51432E
:104BA0000160C6E7064A51430160C2E7024A514329
:104BB0000160BEE70010024000127A0034050020B8
:104BC00000093D00002142090B4B012A04D0022AB2
:104BD00004D0032A04D004E0196802E0196A00E056
:104BE000596A00F01F00012282400A4201D00120D0
:104BF00070470020704700000010024003490A6A15
:104C000022F4407202430A62704700000010024022
:104C100003494A6822F0030202434A6070470000D9
:104C20000010024002484068C0F381007047000055
:104C30000010024008490A6842F010020A60064B60
:104C400082B220331A60000C1A1F1060086820F02E
:104C5000100008607047000004280040F8B5324C8E
:104C6000E06940F08050E0610120FFF729FF606AB1
:104C700040F001006062651502E02846FFF7BEFFC4
:104C80006120FFF79FFF0028F7D0206A40F4004022
:104C9000206200F075F8254C20688006FCD523487A
:104CA000001F016841F00301016020688006FCD507
:104CB00049F63F4000F052F820688006FCD54FF4DA
:104CC000E14000F037F820688006FCD5002500950B
:104CD00003208DF8000001268DF803608DF8015047
:104CE0008DF802506846FFF74DFE29208DF8000030
:104CF0008DF803608DF801608DF802506846FFF76B
:104D000041FE0B48016841F4003101600848083851
:104D1000016841F40031016047F28200FFF78AFF29
:104D200020688006FCD5F8BD001002400428004031
:104D30000804014008490A6842F010020A60064B64
:104D400082B218331A60000C1A1F1060086820F035
:104D500010000860704700000428004007490A68F6
:104D600042F010020A60020C0B1D1A601A1D80B27C
:104D70001060086820F010000860704704280040A8
:104D80000448016821F00801016001680907FCD5A9
:104D900070470000042800400CB5002201920092E8
:104DA0002748016841F0010101604FF42063016868
:104DB00001F0020100910199491C0191009911B97A
:104DC00001999942F3D10168890702D50121009127
:104DD00000E000920099012900D0FEE719490A6815
:104DE00042F010020A600A6822F007020A600A68AC
:104DF00042F002020A6041684160416841604168D6
:104E000041F480614160416821F47C114160416856
:104E100041F460114160016841F0807101600168F6
:104E20008901FCD5416821F003014160416841F0EE
:104E3000020141604168C1F381010229FAD10CBD30
:104E4000001002400020024070B505462846FEF7DB
:104E500011F8304C207820F040002070207820F0AD
:104E600080002070207820F0200004F856093DE0F2
:104E7000FFF7E8FCFEF74AFC27480168001F0068BE
:104E800041EA004023498E394861801CFFF7D2FE79
:104E90002148183801688906FCD520A0FCF7A6FC3B
:104EA000012000F09DFE224801F04AF80121002077
:104EB000FFF7EAFD1F48016841F001010160016848
:104EC00041F0807101603920FFF77CFE0028FAD0A4
:104ED0000220FFF79DFEFFF7A5FE0228FBD1FFF79A
:104EE000B1FC15A0FCF782FCFEF710FC94F856000C
:104EF000400607D494F85600000603D494F85600F0
:104F00008006B5D52846FEF7F7FC02480E3800218A
:104F1000417370BD920000201C280040736C6565D1
:104F200070E28094E28094E28094E280945C6E006F
:104F3000004400400010024077616B657570E280AC
:104F400094E28094E28094E280945C6E0000000021
:104F500070B5154C4FF00205607A810710D520F02E
:104F600002006072207A01280AD10020207284F8A1
:104F700054000E4840210160202101600C4805606A
:104F8000607AC1070ED020F001006072207A0028FC
:104F900008D1084801680020884701202072044891
:104FA000001F056070BD00003C0000201408014097
:104FB000140C01409C02002010B5124C2068124ACB
:104FC00080074FF00003A2F138010AD58878401C11
:104FD000C0B28870032805D9507A40F002005072A0
:104FE00000E08B70206880070AD4C878401CC0B2EB
:104FF000C870032803D9507A40F00100507210BDE8
:10500000CB7010BD080801403C0000202DE9F0479E
:105010000024304EDFF8BC802E4F2F4DDFF8BC90BF
:10502000DFF8BCA0083E08F1440814B1012C4AD1B5
:1050300026E00123052207213046FDF7C9F838682C
:1050400040F4A000386031688807FCD5D8F800002B
:1050500080B26881FBF71AFB00224B46FBF788FA07
:1050600000225346FBF712FA00221E4BFBF70EFA02
:105070001D4A1E4BFBF70AFAFBF754FBA88222E0FD
:105080000123052208213046FDF7A2F8386840F4D4
:10509000A000386031688807FCD5D8F8000080B2DD
:1050A000A881FBF7F3FA00224B46FBF761FA0022D6
:1050B0005346FBF7EBF94FF033320D4BFBF7E6F9B4
:1050C000FBF730FBE882641CE4B2022CADD3BDE8F0
:1050D000F0870000082401403C00002000FEAF40A3
:1050E00000C8A94000004940CDCCCCCCCCCCEC3F92
:1050F0003373304010B5FDF7AFF8FDF7BDF8FFF79B
:105100005BFFFFF725FFFDF75BFA0C480068C0F373
:105110004000FEF74FFDFDF7EFF8FDF7A5FBFDF7AB
:10512000BDF9FDF7EDF9FDF7E5FAFDF7D5F804480F
:10513000007ABDE81040FDF781BA00000808014080
:105140003C00002070B5464C0025207914286DD213
:10515000DFE800F06C0A15181D22272C323537398C
:105160003C3F44494E515B60FBF7F8FC3D490880E9
:10517000FBF704FD3C490880FBF710FD59E0FBF705
:1051800055FD56E0FBF7A6FDFBF76EFD51E0FBF782
:10519000C3FDFBF77BFD4CE0FBF7D2FDFBF788FD81
:1051A00047E0FBF743FDFBF71DFD42E0FBF72EFD5B
:1051B00060842E4908813CE0FBF70AFE39E0FBF7EA
:1051C0000FFEFBF715FEFBF71BFE32E0FBF72EFD93
:1051D0002FE07420FBF7D4FDE0822AE07020FBF77B
:1051E000CFFD608225E07220FBF7CAFDA08220E09F
:1051F000FBF71CFD1DE07620FBF7C2FD20831C4859
:10520000017841F00101017013E03620FBF7C6FD83
:10521000A0850EE0002211461220FBF7C5FE1548BE
:105220000178407801EB0020A08402E0132800D927
:10523000257111481149008809880843104909D08F
:1052400010480078002804D10888642801D2401C46
:10525000088070BD2079401C20710D8070BD000059
:105260006C0300207A0200207C02002060060020EF
:1052700092000020A9000020B6000020B400002009
:10528000B20000207E0200200148FCF7FFB80000B9
:105290002C06002030B422490023887E002834D018
:1052A0004B76CB761F4CC4F80230A371B720A11CFB
:1052B00008701D48427E95084A7865F300026578BB
:1052C00065F34302057865F304124A7045798A78DC
:1052D00065F30302807960F307128A700020CA78B0
:1052E0000D5C2A44CA70401CC0B20328F7D3C878AA
:1052F000C04308710D4801680906FCD523700948B0
:10530000052130BC801C00F05FBD087E421C0A767F
:105310000528C7D3487E401C48760120C876C1E7DF
:10532000AC050020820200207900002000480040E7
:105330002DE9F0410D4D0E48298EFDF753FCE86232
:1053400000240C4E0027305DFBF78AF9E96AFBF771
:1053500049FA05D2C4F1090085F82000BDE8F081C2
:1053600085F82070641C092CEDDBF7E73C00002079
:1053700060060020086100082DE9F04F8BB0974CC3
:105380002068FBF7E8F905460E46A068FBF7E3F94D
:10539000944F227CDFF84892D7F804C0CDE907C9C2
:1053A000C2F3400302F00102CDE9092314F8042CF2
:1053B000CDE904560692DFF830822379A289B8F944
:1053C0000060E589CDE90052CDE9026302460B4653
:1053D0008648FCF70BFA86A0FCF708FA2068FBF772
:1053E000BAF905460E46A068FBF7B5F914F8043C77
:1053F0007A68CDE90729CDE904560693B8F900503B
:105400002279E389CDE90035029202460B468048B5
:10541000FCF7ECF9607F34F80E3C00F0010134F841
:10542000102C7CA0FCF7E2F9834D2868C0F3001132
:1054300082A0FCF7DBF9207E0090237FE27EA17E34
:1054400084A0FCF7D3F994F8310000F00101009139
:10545000C0F34003C0F38002C0F3C00185A0FCF795
:10546000C5F9904890F83820017F8FA0FCF7BEF96D
:10547000954E96A03188FCF7B9F9FDF7A7FB00908F
:10548000984FE37F14F81E2F3868C0F3400196A0B0
:10549000FCF7ACF9207DC0F3C001A0A0FCF7A6F991
:1054A000207DC0F38001A2A0FCF7A0F9A44CDFF896
:1054B0009492DFF894A220780090DFF890B299F8E7
:1054C00000309AF800209BF80010A1A0FCF78EF99C
:1054D0003868C0F3C002281D0068C0F3C031A6A020
:1054E000FCF784F9AAA0FCF781F9B0480289418948
:1054F000C388CDE900320291838842880188ACA03C
:10550000FCF774F9B24802884188B2A0FCF76EF942
:10551000B8F90010B5A0FCF769F92078009099F867
:1055200000309AF800209BF80010B5A0FCF75EF957
:10553000BC48BD4900780978CDE90010BB48037824
:10554000BB480278BB480178BBA0FCF74FF9C648BE
:105550000188C6A0FCF74AF9C9480188C9A0FCF730
:1055600045F93188CDA0FCF741F9D2480188D2A095
:10557000FCF73CF9D6480188D6A0FCF737F9DA48A1
:105580000178DAA0FCF732F9DE480178DEA0FCF7FA
:105590002DF9E3480178E3A0FCF728F9E7480188F2
:1055A000E7A0FCF723F9EC480178ECA0FCF71EF922
:1055B000EF480178EFA0FCF719F9F3480178F3A060
:1055C000FCF714F9F6480178F6A0FCF70FF9FB4850
:1055D0000188FBA0FCF70AF9FF48FFE1600000200A
:1055E0000074B701600600208E030020746100087B
:1055F000504F52543A2D2D2D2D2D2D2D2D2D2D2D3D
:10560000732D2D2D2D2D2D2D2D2D2D2D0A0000002E
:1056100018610008504F52543A41206469732025A4
:105620006420206375723A2564206D612C766F6C5E
:105630003A2564206D760A0008080140504F525404
:105640003A67657420412077616B652070696E2030
:1056500025640A00504F52543A43413A25642C4382
:10566000423A25642C50473A25642C413A25640A75
:1056700000000000504F52543A646973206F7470F8
:105680003A25642C7574703A25642C6368617267DE
:1056900065206F74703A2564202C7574703A256407
:1056A0000A0000009C020020504F52543A6261747C
:1056B0005F6C65643A25642020706F72745F6C655E
:1056C000643A25640A000000AC000020504F525498
:1056D0003A537461636B5F566F6C746167653A250A
:1056E000640A00000C0C0140504F52543A673032AB
:1056F000303A706F773A256420636861675F646F42
:10570000776E2025642C646973675F646F776E2001
:1057100025642C636D642025640A0000504F5254A8
:105720003A6969635F6572723A25640A0000000095
:10573000504F52543A626D735F61633A25640A00B8
:10574000A1000020A00000209F0000209E0000205B
:10575000504F52543A424D533E4453473A25642CDD
:105760004348473A25642C504348473A25642C5017
:105770004453473A25640A00504F52543A4D43551A
:105780003E4453473A25642C4348473A25640A006F
:10579000424D533A2D2D2D2D2D2D2D2D2D2D2D738B
:1057A0002D2D2D2D2D2D2D2D2D2D0A00A005002068
:1057B000424D533A565F63656C6C733A25642C25F1
:1057C000642C25642C25642C25642C25640A000097
:1057D00094000020424D533A746F74616C203A2556
:1057E00064206E61636B3A25640A0000424D533AAF
:1057F000626D735F637572723A25640A000000007F
:10580000424D533A4453473A25642C4348473A257E
:10581000642C504348473A25642C504453473A255A
:10582000640A00009C0000209B0000209A000020D9
:105830009900002098000020424D533A55565F468B
:105840003A25642C4F565F463A25642C5343445FF7
:10585000463A25642C4F43445F463A25642C4F4317
:10586000435F463A25640A007A020020424D533ACB
:10587000416C61726D426974733A307825780A0020
:105880007C020020424D533A416C61726D42697452
:1058900073323A307825780A00000000424D533ABE
:1058A000537461636B5F566F6C746167653A25640E
:1058B0000A000000AE000020424D533A5061636B75
:1058C0005F566F6C746167653A25640A00000000DA
:1058D000B0000020424D533A4C445F566F6C7461E7
:1058E00067653A25640A0000A2000020424D533A41
:1058F000536166657479537461747573413A307895
:1059000025780A00A3000020424D533A5361666592
:105910007479537461747573423A307825780A004B
:10592000A4000020424D533A536166657479537464
:1059300061747573433A307825780A00BA00002004
:10594000424D533A636F6E74726F6C537461747529
:10595000733A307825780A00A5000020424D533A6A
:105960005046537461747573413A307825780A0053
:10597000A6000020424D533A50465374617475732B
:10598000423A307825780A00A7000020424D533A69
:105990005046537461747573433A307825780A0021
:1059A000A8000020424D533A4645545F5374617439
:1059B00075733A307825780A0000000080020020D4
:1059C000424D533A43425F41637469766543656C67
:1059D0006C733A25640A000084030020008800B23A
:1059E000A0F6AA2000901248008803B21148A3F63E
:1059F000AA23008802B21048A2F6AA22008801B2A7
:105A0000A1F6AA210DA0FBF7F1FE1448018814A00D
:105A1000FBF7ECFE1A4801781AA0FBF7E7FE2868AE
:105A20000BB0C0F34001BDE8F04F1EA0FBF7DEBE97
:105A300082030020800300207E030020424D533A61
:105A400054313A25642054323A25642054333A259F
:105A5000642054343A25640A0000000090030020BA
:105A6000424D533A626D735F626174746572795F1F
:105A700073746174757320307825780A0000000013
:105A80009D000020424D533A50726F7465637469F3
:105A90006F6E73547269676765726564203A256436
:105AA0000A0000006B65795F6C6576656C3A256469
:105AB0000A0000002DE9F0410E48B0F90800FDF79A
:105AC000B7FE0D4D686200240C4E0027305DFAF7DA
:105AD000C7FD696AFAF786FE05D8C4F1070085F8A4
